{
  "_format": "hh-sol-artifact-1",
  "contractName": "DealFlow",
  "sourceName": "contracts/DealFlow.sol",
  "abi": [
    {
      "inputs": [
        {
          "internalType": "address",
          "name": "_dealContract",
          "type": "address"
        },
        {
          "internalType": "address",
          "name": "_subnetRegistry",
          "type": "address"
        },
        {
          "internalType": "uint256",
          "name": "_stakeAmount",
          "type": "uint256"
        }
      ],
      "stateMutability": "nonpayable",
      "type": "constructor"
    },
    {
      "inputs": [
        {
          "internalType": "address",
          "name": "owner",
          "type": "address"
        }
      ],
      "name": "OwnableInvalidOwner",
      "type": "error"
    },
    {
      "inputs": [
        {
          "internalType": "address",
          "name": "account",
          "type": "address"
        }
      ],
      "name": "OwnableUnauthorizedAccount",
      "type": "error"
    },
    {
      "anonymous": false,
      "inputs": [
        {
          "indexed": true,
          "internalType": "bytes32",
          "name": "dealId",
          "type": "bytes32"
        },
        {
          "indexed": true,
          "internalType": "string",
          "name": "minerId",
          "type": "string"
        },
        {
          "indexed": true,
          "internalType": "address",
          "name": "userAddress",
          "type": "address"
        }
      ],
      "name": "DealProposed",
      "type": "event"
    },
    {
      "anonymous": false,
      "inputs": [
        {
          "indexed": true,
          "internalType": "string",
          "name": "minerId",
          "type": "string"
        },
        {
          "indexed": true,
          "internalType": "address",
          "name": "minerAddress",
          "type": "address"
        }
      ],
      "name": "MinerRegistered",
      "type": "event"
    },
    {
      "anonymous": false,
      "inputs": [
        {
          "indexed": true,
          "internalType": "address",
          "name": "previousOwner",
          "type": "address"
        },
        {
          "indexed": true,
          "internalType": "address",
          "name": "newOwner",
          "type": "address"
        }
      ],
      "name": "OwnershipTransferred",
      "type": "event"
    },
    {
      "inputs": [],
      "name": "dealClient",
      "outputs": [
        {
          "internalType": "contract IDealClient",
          "name": "",
          "type": "address"
        }
      ],
      "stateMutability": "view",
      "type": "function"
    },
    {
      "inputs": [
        {
          "internalType": "bytes32",
          "name": "",
          "type": "bytes32"
        }
      ],
      "name": "dealRecord",
      "outputs": [
        {
          "internalType": "bytes",
          "name": "piece_cid",
          "type": "bytes"
        },
        {
          "internalType": "uint64",
          "name": "piece_size",
          "type": "uint64"
        },
        {
          "internalType": "bool",
          "name": "verified_deal",
          "type": "bool"
        },
        {
          "internalType": "string",
          "name": "label",
          "type": "string"
        },
        {
          "internalType": "int64",
          "name": "start_epoch",
          "type": "int64"
        },
        {
          "internalType": "int64",
          "name": "end_epoch",
          "type": "int64"
        },
        {
          "internalType": "uint256",
          "name": "storage_price_per_epoch",
          "type": "uint256"
        },
        {
          "internalType": "uint256",
          "name": "provider_collateral",
          "type": "uint256"
        },
        {
          "internalType": "uint256",
          "name": "client_collateral",
          "type": "uint256"
        },
        {
          "internalType": "uint64",
          "name": "extra_params_version",
          "type": "uint64"
        },
        {
          "components": [
            {
              "internalType": "string",
              "name": "location_ref",
              "type": "string"
            },
            {
              "internalType": "uint64",
              "name": "car_size",
              "type": "uint64"
            },
            {
              "internalType": "bool",
              "name": "skip_ipni_announce",
              "type": "bool"
            },
            {
              "internalType": "bool",
              "name": "remove_unsealed_copy",
              "type": "bool"
            }
          ],
          "internalType": "struct ExtraParamsV1",
          "name": "extra_params",
          "type": "tuple"
        }
      ],
      "stateMutability": "view",
      "type": "function"
    },
    {
      "inputs": [],
      "name": "getAllRegisteredMiners",
      "outputs": [
        {
          "internalType": "string[]",
          "name": "",
          "type": "string[]"
        }
      ],
      "stateMutability": "view",
      "type": "function"
    },
    {
      "inputs": [
        {
          "internalType": "uint256",
          "name": "pricePerGB",
          "type": "uint256"
        },
        {
          "internalType": "uint256",
          "name": "sizeInBytes",
          "type": "uint256"
        }
      ],
      "name": "getDealPrice",
      "outputs": [
        {
          "internalType": "uint256",
          "name": "",
          "type": "uint256"
        }
      ],
      "stateMutability": "pure",
      "type": "function"
    },
    {
      "inputs": [
        {
          "internalType": "bytes",
          "name": "pieceCid",
          "type": "bytes"
        }
      ],
      "name": "getPieceDeals",
      "outputs": [
        {
          "internalType": "uint64",
          "name": "",
          "type": "uint64"
        }
      ],
      "stateMutability": "view",
      "type": "function"
    },
    {
      "inputs": [
        {
          "internalType": "address",
          "name": "",
          "type": "address"
        }
      ],
      "name": "minerAuth",
      "outputs": [
        {
          "internalType": "string",
          "name": "",
          "type": "string"
        }
      ],
      "stateMutability": "view",
      "type": "function"
    },
    {
      "inputs": [
        {
          "internalType": "string",
          "name": "",
          "type": "string"
        },
        {
          "internalType": "uint256",
          "name": "",
          "type": "uint256"
        }
      ],
      "name": "minerDeals",
      "outputs": [
        {
          "internalType": "bytes32",
          "name": "",
          "type": "bytes32"
        }
      ],
      "stateMutability": "view",
      "type": "function"
    },
    {
      "inputs": [
        {
          "internalType": "string",
          "name": "",
          "type": "string"
        }
      ],
      "name": "minerRecord",
      "outputs": [
        {
          "internalType": "string",
          "name": "id",
          "type": "string"
        },
        {
          "internalType": "address payable",
          "name": "paymentReceiver",
          "type": "address"
        },
        {
          "internalType": "address",
          "name": "paymentToken",
          "type": "address"
        },
        {
          "internalType": "uint256",
          "name": "pricePerGB",
          "type": "uint256"
        },
        {
          "internalType": "string",
          "name": "location",
          "type": "string"
        },
        {
          "internalType": "uint256",
          "name": "maxDealDuration",
          "type": "uint256"
        },
        {
          "internalType": "bool",
          "name": "retrieval",
          "type": "bool"
        },
        {
          "internalType": "bool",
          "name": "verifiedDeal",
          "type": "bool"
        },
        {
          "internalType": "address",
          "name": "listenAddress",
          "type": "address"
        }
      ],
      "stateMutability": "view",
      "type": "function"
    },
    {
      "inputs": [],
      "name": "owner",
      "outputs": [
        {
          "internalType": "address",
          "name": "",
          "type": "address"
        }
      ],
      "stateMutability": "view",
      "type": "function"
    },
    {
      "inputs": [
        {
          "internalType": "string",
          "name": "minerId",
          "type": "string"
        },
        {
          "components": [
            {
              "internalType": "bytes",
              "name": "piece_cid",
              "type": "bytes"
            },
            {
              "internalType": "uint64",
              "name": "piece_size",
              "type": "uint64"
            },
            {
              "internalType": "bool",
              "name": "verified_deal",
              "type": "bool"
            },
            {
              "internalType": "string",
              "name": "label",
              "type": "string"
            },
            {
              "internalType": "int64",
              "name": "start_epoch",
              "type": "int64"
            },
            {
              "internalType": "int64",
              "name": "end_epoch",
              "type": "int64"
            },
            {
              "internalType": "uint256",
              "name": "storage_price_per_epoch",
              "type": "uint256"
            },
            {
              "internalType": "uint256",
              "name": "provider_collateral",
              "type": "uint256"
            },
            {
              "internalType": "uint256",
              "name": "client_collateral",
              "type": "uint256"
            },
            {
              "internalType": "uint64",
              "name": "extra_params_version",
              "type": "uint64"
            },
            {
              "components": [
                {
                  "internalType": "string",
                  "name": "location_ref",
                  "type": "string"
                },
                {
                  "internalType": "uint64",
                  "name": "car_size",
                  "type": "uint64"
                },
                {
                  "internalType": "bool",
                  "name": "skip_ipni_announce",
                  "type": "bool"
                },
                {
                  "internalType": "bool",
                  "name": "remove_unsealed_copy",
                  "type": "bool"
                }
              ],
              "internalType": "struct ExtraParamsV1",
              "name": "extra_params",
              "type": "tuple"
            }
          ],
          "internalType": "struct DealRequest",
          "name": "deal",
          "type": "tuple"
        }
      ],
      "name": "proposeDeal",
      "outputs": [],
      "stateMutability": "nonpayable",
      "type": "function"
    },
    {
      "inputs": [
        {
          "internalType": "string",
          "name": "minerId",
          "type": "string"
        },
        {
          "internalType": "address payable",
          "name": "paymentReceiver",
          "type": "address"
        },
        {
          "internalType": "address",
          "name": "paymentToken",
          "type": "address"
        },
        {
          "internalType": "uint256",
          "name": "pricePerGB",
          "type": "uint256"
        },
        {
          "internalType": "string",
          "name": "location",
          "type": "string"
        },
        {
          "internalType": "uint256",
          "name": "maxDealDuration",
          "type": "uint256"
        },
        {
          "internalType": "bool",
          "name": "retrieval",
          "type": "bool"
        },
        {
          "internalType": "bool",
          "name": "verifiedDeal",
          "type": "bool"
        }
      ],
      "name": "registerMiner",
      "outputs": [],
      "stateMutability": "payable",
      "type": "function"
    },
    {
      "inputs": [
        {
          "internalType": "uint256",
          "name": "",
          "type": "uint256"
        }
      ],
      "name": "registeredMinerIds",
      "outputs": [
        {
          "internalType": "string",
          "name": "",
          "type": "string"
        }
      ],
      "stateMutability": "view",
      "type": "function"
    },
    {
      "inputs": [],
      "name": "renounceOwnership",
      "outputs": [],
      "stateMutability": "nonpayable",
      "type": "function"
    },
    {
      "inputs": [
        {
          "internalType": "uint256",
          "name": "_stakeAmount",
          "type": "uint256"
        }
      ],
      "name": "setStakeAmount",
      "outputs": [],
      "stateMutability": "nonpayable",
      "type": "function"
    },
    {
      "inputs": [
        {
          "internalType": "string",
          "name": "_minerId",
          "type": "string"
        },
        {
          "components": [
            {
              "internalType": "uint256",
              "name": "minActivationCollateral",
              "type": "uint256"
            },
            {
              "internalType": "uint64",
              "name": "minValidators",
              "type": "uint64"
            },
            {
              "internalType": "uint64",
              "name": "bottomUpCheckPeriod",
              "type": "uint64"
            },
            {
              "internalType": "address",
              "name": "ipcGatewayAddr",
              "type": "address"
            },
            {
              "internalType": "uint16",
              "name": "activeValidatorsLimit",
              "type": "uint16"
            },
            {
              "internalType": "uint8",
              "name": "majorityPercentage",
              "type": "uint8"
            },
            {
              "internalType": "enum ConsensusType",
              "name": "consensus",
              "type": "uint8"
            },
            {
              "internalType": "int8",
              "name": "powerScale",
              "type": "int8"
            },
            {
              "internalType": "enum PermissionMode",
              "name": "permissionMode",
              "type": "uint8"
            },
            {
              "components": [
                {
                  "internalType": "enum SupplyKind",
                  "name": "kind",
                  "type": "uint8"
                },
                {
                  "internalType": "address",
                  "name": "tokenAddress",
                  "type": "address"
                }
              ],
              "internalType": "struct SupplySource",
              "name": "supplySource",
              "type": "tuple"
            },
            {
              "components": [
                {
                  "internalType": "uint64",
                  "name": "root",
                  "type": "uint64"
                },
                {
                  "internalType": "address[]",
                  "name": "route",
                  "type": "address[]"
                }
              ],
              "internalType": "struct SubnetID",
              "name": "parentId",
              "type": "tuple"
            }
          ],
          "internalType": "struct SubnetActorDiamond.ConstructorParams",
          "name": "_params",
          "type": "tuple"
        }
      ],
      "name": "spinSubnet",
      "outputs": [],
      "stateMutability": "nonpayable",
      "type": "function"
    },
    {
      "inputs": [],
      "name": "stakeAmount",
      "outputs": [
        {
          "internalType": "uint256",
          "name": "",
          "type": "uint256"
        }
      ],
      "stateMutability": "view",
      "type": "function"
    },
    {
      "inputs": [],
      "name": "subnetRegistry",
      "outputs": [
        {
          "internalType": "contract IRegisterSubnetFacet",
          "name": "",
          "type": "address"
        }
      ],
      "stateMutability": "view",
      "type": "function"
    },
    {
      "inputs": [
        {
          "internalType": "address",
          "name": "newOwner",
          "type": "address"
        }
      ],
      "name": "transferOwnership",
      "outputs": [],
      "stateMutability": "nonpayable",
      "type": "function"
    },
    {
      "inputs": [
        {
          "internalType": "address",
          "name": "",
          "type": "address"
        },
        {
          "internalType": "uint256",
          "name": "",
          "type": "uint256"
        }
      ],
      "name": "userDeals",
      "outputs": [
        {
          "internalType": "bytes32",
          "name": "",
          "type": "bytes32"
        }
      ],
      "stateMutability": "view",
      "type": "function"
    }
  ],
  "bytecode": "0x60806040523480156200001157600080fd5b50604051620026523803806200265283398101604081905262000034916200010d565b33806200005b57604051631e4fbdf760e01b81526000600482015260240160405180910390fd5b6200006681620000a0565b50600380546001600160a01b039485166001600160a01b03199182161790915560048054939094169216919091179091556001556200014e565b600080546001600160a01b038381166001600160a01b0319831681178455604051919092169283917f8be0079c531659141344cd1fd0a4f28419497f9722a3daafe3b4186f6b6457e09190a35050565b80516001600160a01b03811681146200010857600080fd5b919050565b6000806000606084860312156200012357600080fd5b6200012e84620000f0565b92506200013e60208501620000f0565b9150604084015190509250925092565b6124f4806200015e6000396000f3fe6080604052600436106100e45760003560e01c806317364442146100e957806328840164146101275780632df9b1c21461015f5780632e3f04051461018c5780633e0beca2146101b957806343808c50146101d957806349c3c982146101fb5780635839ff0f146102295780635fbd47e61461024957806360c7dc47146102695780636631d58c1461027f5780636b71d3151461029f578063715018a6146102bf5780637dc813de146102d45780637fb68334146102e75780638da5cb5b1461031e5780639a63487b14610333578063f23d25fc14610355578063f2fde38b14610375575b600080fd5b3480156100f557600080fd5b506101096101043660046113f8565b610395565b60405161011e9998979695949392919061147c565b60405180910390f35b34801561013357600080fd5b506101476101423660046114f1565b610517565b6040516001600160401b03909116815260200161011e565b34801561016b57600080fd5b5060035461017f906001600160a01b031681565b60405161011e9190611539565b34801561019857600080fd5b506101ac6101a7366004611572565b61058f565b60405161011e919061158f565b3480156101c557600080fd5b5060045461017f906001600160a01b031681565b3480156101e557600080fd5b506101f96101f43660046115a2565b610629565b005b34801561020757600080fd5b5061021b6102163660046115bb565b610636565b60405190815260200161011e565b34801561023557600080fd5b506101f96102443660046115ff565b610676565b34801561025557600080fd5b506101f961026436600461166a565b6107d7565b34801561027557600080fd5b5061021b60015481565b34801561028b57600080fd5b506101ac61029a3660046115a2565b610c08565b3480156102ab57600080fd5b5061021b6102ba3660046116ca565b610c33565b3480156102cb57600080fd5b506101f9610c4f565b6101f96102e236600461170f565b610c63565b3480156102f357600080fd5b506103076103023660046115a2565b610f17565b60405161011e9b9a99989796959493929190611822565b34801561032a57600080fd5b5061017f611179565b34801561033f57600080fd5b50610348611188565b60405161011e91906118b8565b34801561036157600080fd5b5061021b61037036600461191c565b611261565b34801561038157600080fd5b506101f9610390366004611572565b611286565b80516020818301810180516005825292820191909301209152805481906103bb9061193e565b80601f01602080910402602001604051908101604052809291908181526020018280546103e79061193e565b80156104345780601f1061040957610100808354040283529160200191610434565b820191906000526020600020905b81548152906001019060200180831161041757829003601f168201915b5050505060018301546002840154600385015460048601805495966001600160a01b0394851696949093169450909261046c9061193e565b80601f01602080910402602001604051908101604052809291908181526020018280546104989061193e565b80156104e55780601f106104ba576101008083540402835291602001916104e5565b820191906000526020600020905b8154815290600101906020018083116104c857829003601f168201915b50505050600583015460069093015491929160ff8082169250610100820416906201000090046001600160a01b031689565b600354604051630a0e0c9160e01b81526000916001600160a01b031690630a0e0c919061054890859060040161158f565b602060405180830381865afa158015610565573d6000803e3d6000fd5b505050506040513d601f19601f82011682018060405250810190610589919061198d565b92915050565b600660205260009081526040902080546105a89061193e565b80601f01602080910402602001604051908101604052809291908181526020018280546105d49061193e565b80156106215780601f106105f657610100808354040283529160200191610621565b820191906000526020600020905b81548152906001019060200180831161060457829003601f168201915b505050505081565b6106316112c4565b600155565b8151602081840181018051600982529282019185019190912091905280548290811061066157600080fd5b90600052602060002001600091509150505481565b8160405160200161068791906119aa565b60408051601f198184030181528282528051602091820120336000908152600683529290922091926106ba9291016119c6565b60405160208183030381529060405280519060200120146107175760405162461bcd60e51b81526020600482015260126024820152712ab730baba3437b934bd32b21036b4b732b960711b60448201526064015b60405180910390fd5b600060058360405161072991906119aa565b9081526040519081900360200181206004805463fc3b0ad360e01b84529193506001600160a01b039091169163fc3b0ad39161076791869101611bdb565b6020604051808303816000875af1158015610786573d6000803e3d6000fd5b505050506040513d601f19601f820116820180604052508101906107aa9190611cf2565b8160060160026101000a8154816001600160a01b0302191690836001600160a01b03160217905550505050565b60006005836040516107e991906119aa565b9081526020016040518091039020604051806101200160405290816000820180546108139061193e565b80601f016020809104026020016040519081016040528092919081815260200182805461083f9061193e565b801561088c5780601f106108615761010080835404028352916020019161088c565b820191906000526020600020905b81548152906001019060200180831161086f57829003601f168201915b505050918352505060018201546001600160a01b0390811660208301526002830154166040820152600382015460608201526004820180546080909201916108d39061193e565b80601f01602080910402602001604051908101604052809291908181526020018280546108ff9061193e565b801561094c5780601f106109215761010080835404028352916020019161094c565b820191906000526020600020905b81548152906001019060200180831161092f57829003601f168201915b5050509183525050600582015460208083019190915260069092015460ff80821615156040840152610100820416151560608301526001600160a01b0362010000909104811660809092019190915290820151919250166109e65760405162461bcd60e51b8152602060048201526014602482015273135a5b995c881b9bdd081c9959da5cdd195c995960621b604482015260640161070e565b6060810151600090610a1090610a026040860160208701611d0f565b6001600160401b0316611261565b604083810151602085015191516323b872dd60e01b81523360048201526001600160a01b0392831660248201526044810184905292935091908216906323b872dd906064016020604051808303816000875af1158015610a74573d6000803e3d6000fd5b505050506040513d601f19601f82011682018060405250810190610a989190611d2c565b610ad55760405162461bcd60e51b815260206004820152600e60248201526d14185e5b595b9d0819985a5b195960921b604482015260640161070e565b600354604051630dd27fe960e41b81526000916001600160a01b03169063dd27fe9090610b06908890600401611e61565b6020604051808303816000875af1158015610b25573d6000803e3d6000fd5b505050506040513d601f19601f82011682018060405250810190610b499190611f99565b60008181526007602052604090209091508590610b6682826122a6565b50503360009081526008602090815260408083208054600181018255908452919092200182905551600990610b9c9088906119aa565b908152604051908190036020908101822080546001810182556000918252919020018290553390610bce9088906119aa565b6040519081900381209083907f21b9417db29ae385dd6589f9727ad3908e1731fa16a81d39894115c5a255bbd390600090a4505050505050565b60028181548110610c1857600080fd5b9060005260206000200160009150905080546105a89061193e565b6008602052816000526040600020818154811061066157600080fd5b610c576112c4565b610c6160006112f6565b565b6001543414610cad5760405162461bcd60e51b8152602060048201526016602482015275125b98dbdc9c9958dd081cdd185ad948185b5bdd5b9d60521b604482015260640161070e565b60006001600160a01b0316600589604051610cc891906119aa565b908152604051908190036020019020600101546001600160a01b031614610d2c5760405162461bcd60e51b8152602060048201526018602482015277135a5b995c88185b1c9958591e481c9959da5cdd195c995960421b604482015260640161070e565b604051806101200160405280898152602001886001600160a01b03168152602001876001600160a01b0316815260200186815260200185815260200184815260200183151581526020018215158152602001306001600160a01b0316815250600589604051610d9b91906119aa565b90815260405190819003602001902081518190610db890826123be565b5060208201516001820180546001600160a01b039283166001600160a01b03199182161790915560408401516002840180549190931691161790556060820151600382015560808201516004820190610e1190826123be565b5060a0820151600582015560c08201516006909101805460e08401516101009485015161ffff1990921693151561ff001916939093179215159093029190911762010000600160b01b031916620100006001600160a01b0390931692909202919091179055600280546001810182556000919091527f405787fa12a823e0f2b7631cc41b3ba8828b3321ca811111fa75cd3aa3bb5ace01610eb289826123be565b50336000908152600660205260409020610ecc89826123be565b506040513390610edd908a906119aa565b604051908190038120907f6089459bbb55e2570581a3849f925baf438ec041e0f55b57496958279b42667990600090a35050505050505050565b600760205260009081526040902080548190610f329061193e565b80601f0160208091040260200160405190810160405280929190818152602001828054610f5e9061193e565b8015610fab5780601f10610f8057610100808354040283529160200191610fab565b820191906000526020600020905b815481529060010190602001808311610f8e57829003601f168201915b50505050600183015460028401805493946001600160401b03831694600160401b90930460ff16935091610fde9061193e565b80601f016020809104026020016040519081016040528092919081815260200182805461100a9061193e565b80156110575780601f1061102c57610100808354040283529160200191611057565b820191906000526020600020905b81548152906001019060200180831161103a57829003601f168201915b5050506003840154600485015460058601546006870154600780890154604080516080810190915260088b0180549a9b88850b9b600160401b90990490940b9950959750939592946001600160401b03909116939192829082906110ba9061193e565b80601f01602080910402602001604051908101604052809291908181526020018280546110e69061193e565b80156111335780601f1061110857610100808354040283529160200191611133565b820191906000526020600020905b81548152906001019060200180831161111657829003601f168201915b5050509183525050600191909101546001600160401b038116602083015260ff600160401b8204811615156040840152600160481b90910416151560609091015290508b565b6000546001600160a01b031690565b60606002805480602002602001604051908101604052809291908181526020016000905b828210156112585783829060005260206000200180546111cb9061193e565b80601f01602080910402602001604051908101604052809291908181526020018280546111f79061193e565b80156112445780601f1061121957610100808354040283529160200191611244565b820191906000526020600020905b81548152906001019060200180831161122757829003601f168201915b5050505050815260200190600101906111ac565b50505050905090565b600080611272634000000084612477565b905061127e8185612499565b949350505050565b61128e6112c4565b6001600160a01b0381166112b8576000604051631e4fbdf760e01b815260040161070e9190611539565b6112c1816112f6565b50565b336112cd611179565b6001600160a01b031614610c61573360405163118cdaa760e01b815260040161070e9190611539565b600080546001600160a01b038381166001600160a01b0319831681178455604051919092169283917f8be0079c531659141344cd1fd0a4f28419497f9722a3daafe3b4186f6b6457e09190a35050565b634e487b7160e01b600052604160045260246000fd5b60006001600160401b038084111561137657611376611346565b604051601f8501601f19908116603f0116810190828211818310171561139e5761139e611346565b816040528093508581528686860111156113b757600080fd5b858560208301376000602087830101525050509392505050565b600082601f8301126113e257600080fd5b6113f18383356020850161135c565b9392505050565b60006020828403121561140a57600080fd5b81356001600160401b0381111561142057600080fd5b61127e848285016113d1565b60005b8381101561144757818101518382015260200161142f565b50506000910152565b6000815180845261146881602086016020860161142c565b601f01601f19169290920160200192915050565b60006101208083526114908184018d611450565b6001600160a01b038c811660208601528b81166040860152606085018b905284820360808601529091506114c4828a611450565b60a085019890985295151560c0840152505091151560e08301529091166101009091015295945050505050565b60006020828403121561150357600080fd5b81356001600160401b0381111561151957600080fd5b8201601f8101841361152a57600080fd5b61127e8482356020840161135c565b6001600160a01b0391909116815260200190565b6001600160a01b03811681146112c157600080fd5b803561156d8161154d565b919050565b60006020828403121561158457600080fd5b81356113f18161154d565b6020815260006113f16020830184611450565b6000602082840312156115b457600080fd5b5035919050565b600080604083850312156115ce57600080fd5b82356001600160401b038111156115e457600080fd5b6115f0858286016113d1565b95602094909401359450505050565b6000806040838503121561161257600080fd5b82356001600160401b038082111561162957600080fd5b611635868387016113d1565b9350602085013591508082111561164b57600080fd5b508301610180818603121561165f57600080fd5b809150509250929050565b6000806040838503121561167d57600080fd5b82356001600160401b038082111561169457600080fd5b6116a0868387016113d1565b935060208501359150808211156116b657600080fd5b508301610160818603121561165f57600080fd5b600080604083850312156116dd57600080fd5b82356116e88161154d565b946020939093013593505050565b80151581146112c157600080fd5b803561156d816116f6565b600080600080600080600080610100898b03121561172c57600080fd5b88356001600160401b038082111561174357600080fd5b61174f8c838d016113d1565b995060208b013591506117618261154d565b90975060408a0135906117738261154d565b90965060608a0135955060808a0135908082111561179057600080fd5b5061179d8b828c016113d1565b94505060a0890135925060c08901356117b5816116f6565b915060e08901356117c5816116f6565b809150509295985092959890939650565b60008151608084526117eb6080850182611450565b90506001600160401b0360208401511660208501526040830151151560408501526060830151151560608501528091505092915050565b60006101608083526118368184018f611450565b90506001600160401b03808e1660208501528c151560408501528382036060850152611862828d611450565b91508a60070b60808501528960070b60a08501528860c08501528760e085015286610100850152808616610120850152508281036101408401526118a681856117d6565b9e9d5050505050505050505050505050565b600060208083016020845280855180835260408601915060408160051b87010192506020870160005b8281101561190f57603f198886030184526118fd858351611450565b945092850192908501906001016118e1565b5092979650505050505050565b6000806040838503121561192f57600080fd5b50508035926020909101359150565b600181811c9082168061195257607f821691505b60208210810361197257634e487b7160e01b600052602260045260246000fd5b50919050565b6001600160401b03811681146112c157600080fd5b60006020828403121561199f57600080fd5b81516113f181611978565b600082516119bc81846020870161142c565b9190910192915050565b60008083546119d48161193e565b600182811680156119ec5760018114611a0157611a30565b60ff1984168752821515830287019450611a30565b8760005260208060002060005b85811015611a275781548a820152908401908201611a0e565b50505082870194505b50929695505050505050565b803561156d81611978565b803561ffff8116811461156d57600080fd5b803560ff8116811461156d57600080fd5b80356001811061156d57600080fd5b634e487b7160e01b600052602160045260246000fd5b60018110611a9f57611a9f611a79565b9052565b8035600081900b811461156d57600080fd5b80356003811061156d57600080fd5b60038110611a9f57611a9f611a79565b803560028110611ae357600080fd5b82526020810135611af38161154d565b6001600160a01b03166020929092019190915250565b60008235603e19833603018112611b1f57600080fd5b90910192915050565b6000604083018235611b3981611978565b6001600160401b0390811685526020908482013536869003601e19018112611b6057600080fd5b850160208101903582811115611b7557600080fd5b8060051b3603821315611b8757600080fd5b6040602089015293849052926060870191506000905b80821015611bcf578435611bb08161154d565b6001600160a01b03168352938301939183019160019190910190611b9d565b50909695505050505050565b60208152813560208201526000611bf460208401611a3c565b6001600160401b038116604084015250611c1060408401611a3c565b6001600160401b038116606084015250611c2c60608401611562565b6001600160a01b038116608084015250611c4860808401611a47565b61ffff811660a084015250611c5f60a08401611a59565b60ff811660c084015250611c7560c08401611a6a565b611c8260e0840182611a8f565b50611c8f60e08401611aa3565b610100611ca08185018360000b9052565b611cab818601611ab5565b915050610120611cbd81850183611ac4565b611ccd6101408501828701611ad4565b5050611cdd610160840184611b09565b6101808381015261127e6101a0840182611b28565b600060208284031215611d0457600080fd5b81516113f18161154d565b600060208284031215611d2157600080fd5b81356113f181611978565b600060208284031215611d3e57600080fd5b81516113f1816116f6565b6000808335601e19843603018112611d6057600080fd5b83016020810192503590506001600160401b03811115611d7f57600080fd5b803603821315611d8e57600080fd5b9250929050565b81835281816020850137506000828201602090810191909152601f909101601f19169091010190565b8060070b81146112c157600080fd5b803561156d81611dbe565b60008235607e19833603018112611b1f57600080fd5b6000611dfa8283611d49565b60808552611e0c608086018284611d95565b9150506020830135611e1d81611978565b6001600160401b031660208501526040830135611e39816116f6565b151560408501526060830135611e4e816116f6565b8015156060860152508091505092915050565b602081526000611e718384611d49565b610160806020860152611e8961018086018385611d95565b9250611e9760208701611a3c565b6001600160401b03811660408701529150611eb460408701611704565b80151560608701529150611ecb6060870187611d49565b9250601f1980878603016080880152611ee5858584611d95565b9450611ef360808901611dcd565b9350611f0460a088018560070b9052565b611f1060a08901611dcd565b9350611f2160c088018560070b9052565b60c088013560e0880152610100935060e08801358488015261012091508388013582880152611f51828901611a3c565b93506101409150611f6c828801856001600160401b03169052565b611f7882890189611dd8565b9350808786030183880152505050611f908282611dee565b95945050505050565b600060208284031215611fab57600080fd5b5051919050565b6000808335601e19843603018112611fc957600080fd5b8301803591506001600160401b03821115611fe357600080fd5b602001915036819003821315611d8e57600080fd5b601f821115612044576000816000526020600020601f850160051c810160208610156120215750805b601f850160051c820191505b818110156120405782815560010161202d565b5050505b505050565b600019600383901b1c191660019190911b1790565b6001600160401b0383111561207557612075611346565b61208983612083835461193e565b83611ff8565b6000601f8411600181146120b757600085156120a55750838201355b6120af8682612049565b845550612111565b600083815260209020601f19861690835b828110156120e857868501358255602094850194600190920191016120c8565b50868210156121055760001960f88860031b161c19848701351681555b505060018560011b0183555b5050505050565b6000813561058981611978565b6001600160401b0382166001600160401b03198254161781555050565b60008135610589816116f6565b6000813561058981611dbe565b60008235607e198336030181126119bc57600080fd5b61217c8283611fb2565b6001600160401b0381111561219357612193611346565b6121a7816121a1855461193e565b85611ff8565b6000601f8211600181146121d557600083156121c35750838201355b6121cd8482612049565b86555061222f565b600085815260209020601f19841690835b8281101561220657868501358255602094850194600190920191016121e6565b50848210156122235760001960f88660031b161c19848701351681555b505060018360011b0185555b505050506001810161224c61224660208501612118565b82612125565b61227961225b60408501612142565b82805460ff60401b191691151560401b60ff60401b16919091179055565b61204461228860608501612142565b82805460ff60481b191691151560481b60ff60481b16919091179055565b6122b08283611fb2565b6122bb81838561205e565b5050600181016122d061224660208501612118565b6122df61225b60408501612142565b506122ed6060830183611fb2565b6122fb81836002860161205e565b50506003810161232e6123106080850161214f565b825467ffffffffffffffff19166001600160401b0391909116178255565b61236761233d60a0850161214f565b825460409190911b67ffffffffffffffff60401b1667ffffffffffffffff60401b19909116178255565b5060c0820135600482015560e0820135600582015561010082013560068201556123a06123976101208401612118565b60078301612125565b6123ba6123b161014084018461215c565b60088301612172565b5050565b81516001600160401b038111156123d7576123d7611346565b6123eb816123e5845461193e565b84611ff8565b602080601f83116001811461241a57600084156124085750858301515b6124128582612049565b865550612040565b600085815260208120601f198616915b828110156124495788860151825594840194600190910190840161242a565b50858210156124675787850151600019600388901b60f8161c191681555b5050505050600190811b01905550565b60008261249457634e487b7160e01b600052601260045260246000fd5b500490565b808202811582820484141761058957634e487b7160e01b600052601160045260246000fdfea26469706673582212200eb541b821f9d180e21f83fe97f2792025e05c647e310cd481dfe4267cb2829764736f6c63430008170033",
  "linkReferences": {},
  "deployedLinkReferences": {}
}