{
  "_format": "hh-sol-artifact-1",
  "contractName": "DealFlow",
  "sourceName": "contracts/DealFlow.sol",
  "abi": [
    {
      "inputs": [
        {
          "internalType": "address",
          "name": "_dealContract",
          "type": "address"
        },
        {
          "internalType": "address",
          "name": "_tellorRetrieval",
          "type": "address"
        },
        {
          "internalType": "address",
          "name": "_subnetRegistry",
          "type": "address"
        },
        {
          "internalType": "uint256",
          "name": "_stakeAmount",
          "type": "uint256"
        }
      ],
      "stateMutability": "nonpayable",
      "type": "constructor"
    },
    {
      "inputs": [
        {
          "internalType": "address",
          "name": "owner",
          "type": "address"
        }
      ],
      "name": "OwnableInvalidOwner",
      "type": "error"
    },
    {
      "inputs": [
        {
          "internalType": "address",
          "name": "account",
          "type": "address"
        }
      ],
      "name": "OwnableUnauthorizedAccount",
      "type": "error"
    },
    {
      "anonymous": false,
      "inputs": [
        {
          "indexed": true,
          "internalType": "bytes32",
          "name": "dealId",
          "type": "bytes32"
        },
        {
          "indexed": true,
          "internalType": "string",
          "name": "minerId",
          "type": "string"
        },
        {
          "indexed": true,
          "internalType": "address",
          "name": "userAddress",
          "type": "address"
        }
      ],
      "name": "DealProposed",
      "type": "event"
    },
    {
      "anonymous": false,
      "inputs": [
        {
          "indexed": true,
          "internalType": "string",
          "name": "minerId",
          "type": "string"
        },
        {
          "indexed": true,
          "internalType": "address",
          "name": "minerAddress",
          "type": "address"
        }
      ],
      "name": "MinerRegistered",
      "type": "event"
    },
    {
      "anonymous": false,
      "inputs": [
        {
          "indexed": true,
          "internalType": "address",
          "name": "previousOwner",
          "type": "address"
        },
        {
          "indexed": true,
          "internalType": "address",
          "name": "newOwner",
          "type": "address"
        }
      ],
      "name": "OwnershipTransferred",
      "type": "event"
    },
    {
      "inputs": [
        {
          "internalType": "bytes32",
          "name": "_dealId",
          "type": "bytes32"
        }
      ],
      "name": "challenge",
      "outputs": [],
      "stateMutability": "nonpayable",
      "type": "function"
    },
    {
      "inputs": [
        {
          "internalType": "bytes32",
          "name": "",
          "type": "bytes32"
        }
      ],
      "name": "dealAuth",
      "outputs": [
        {
          "internalType": "address",
          "name": "",
          "type": "address"
        }
      ],
      "stateMutability": "view",
      "type": "function"
    },
    {
      "inputs": [],
      "name": "dealClient",
      "outputs": [
        {
          "internalType": "contract IDealClient",
          "name": "",
          "type": "address"
        }
      ],
      "stateMutability": "view",
      "type": "function"
    },
    {
      "inputs": [
        {
          "internalType": "bytes32",
          "name": "",
          "type": "bytes32"
        }
      ],
      "name": "dealRecord",
      "outputs": [
        {
          "internalType": "bytes",
          "name": "piece_cid",
          "type": "bytes"
        },
        {
          "internalType": "uint64",
          "name": "piece_size",
          "type": "uint64"
        },
        {
          "internalType": "bool",
          "name": "verified_deal",
          "type": "bool"
        },
        {
          "internalType": "string",
          "name": "label",
          "type": "string"
        },
        {
          "internalType": "int64",
          "name": "start_epoch",
          "type": "int64"
        },
        {
          "internalType": "int64",
          "name": "end_epoch",
          "type": "int64"
        },
        {
          "internalType": "uint256",
          "name": "storage_price_per_epoch",
          "type": "uint256"
        },
        {
          "internalType": "uint256",
          "name": "provider_collateral",
          "type": "uint256"
        },
        {
          "internalType": "uint256",
          "name": "client_collateral",
          "type": "uint256"
        },
        {
          "internalType": "uint64",
          "name": "extra_params_version",
          "type": "uint64"
        },
        {
          "components": [
            {
              "internalType": "string",
              "name": "location_ref",
              "type": "string"
            },
            {
              "internalType": "uint64",
              "name": "car_size",
              "type": "uint64"
            },
            {
              "internalType": "bool",
              "name": "skip_ipni_announce",
              "type": "bool"
            },
            {
              "internalType": "bool",
              "name": "remove_unsealed_copy",
              "type": "bool"
            }
          ],
          "internalType": "struct ExtraParamsV1",
          "name": "extra_params",
          "type": "tuple"
        }
      ],
      "stateMutability": "view",
      "type": "function"
    },
    {
      "inputs": [],
      "name": "getAllRegisteredMiners",
      "outputs": [
        {
          "internalType": "string[]",
          "name": "",
          "type": "string[]"
        }
      ],
      "stateMutability": "view",
      "type": "function"
    },
    {
      "inputs": [
        {
          "internalType": "uint256",
          "name": "pricePerGB",
          "type": "uint256"
        },
        {
          "internalType": "uint256",
          "name": "sizeInBytes",
          "type": "uint256"
        }
      ],
      "name": "getDealPrice",
      "outputs": [
        {
          "internalType": "uint256",
          "name": "",
          "type": "uint256"
        }
      ],
      "stateMutability": "pure",
      "type": "function"
    },
    {
      "inputs": [
        {
          "internalType": "bytes",
          "name": "pieceCid",
          "type": "bytes"
        }
      ],
      "name": "getPieceDeals",
      "outputs": [
        {
          "internalType": "uint64",
          "name": "",
          "type": "uint64"
        }
      ],
      "stateMutability": "view",
      "type": "function"
    },
    {
      "inputs": [
        {
          "internalType": "address",
          "name": "",
          "type": "address"
        }
      ],
      "name": "minerAuth",
      "outputs": [
        {
          "internalType": "string",
          "name": "",
          "type": "string"
        }
      ],
      "stateMutability": "view",
      "type": "function"
    },
    {
      "inputs": [
        {
          "internalType": "string",
          "name": "",
          "type": "string"
        },
        {
          "internalType": "uint256",
          "name": "",
          "type": "uint256"
        }
      ],
      "name": "minerDeals",
      "outputs": [
        {
          "internalType": "bytes32",
          "name": "",
          "type": "bytes32"
        }
      ],
      "stateMutability": "view",
      "type": "function"
    },
    {
      "inputs": [
        {
          "internalType": "string",
          "name": "",
          "type": "string"
        }
      ],
      "name": "minerRecord",
      "outputs": [
        {
          "internalType": "string",
          "name": "id",
          "type": "string"
        },
        {
          "internalType": "address payable",
          "name": "paymentReceiver",
          "type": "address"
        },
        {
          "internalType": "address",
          "name": "paymentToken",
          "type": "address"
        },
        {
          "internalType": "uint256",
          "name": "pricePerGB",
          "type": "uint256"
        },
        {
          "internalType": "string",
          "name": "location",
          "type": "string"
        },
        {
          "internalType": "uint256",
          "name": "maxDealDuration",
          "type": "uint256"
        },
        {
          "internalType": "bool",
          "name": "retrieval",
          "type": "bool"
        },
        {
          "internalType": "bool",
          "name": "verifiedDeal",
          "type": "bool"
        },
        {
          "internalType": "address",
          "name": "listenAddress",
          "type": "address"
        }
      ],
      "stateMutability": "view",
      "type": "function"
    },
    {
      "inputs": [],
      "name": "owner",
      "outputs": [
        {
          "internalType": "address",
          "name": "",
          "type": "address"
        }
      ],
      "stateMutability": "view",
      "type": "function"
    },
    {
      "inputs": [
        {
          "internalType": "string",
          "name": "minerId",
          "type": "string"
        },
        {
          "components": [
            {
              "internalType": "bytes",
              "name": "piece_cid",
              "type": "bytes"
            },
            {
              "internalType": "uint64",
              "name": "piece_size",
              "type": "uint64"
            },
            {
              "internalType": "bool",
              "name": "verified_deal",
              "type": "bool"
            },
            {
              "internalType": "string",
              "name": "label",
              "type": "string"
            },
            {
              "internalType": "int64",
              "name": "start_epoch",
              "type": "int64"
            },
            {
              "internalType": "int64",
              "name": "end_epoch",
              "type": "int64"
            },
            {
              "internalType": "uint256",
              "name": "storage_price_per_epoch",
              "type": "uint256"
            },
            {
              "internalType": "uint256",
              "name": "provider_collateral",
              "type": "uint256"
            },
            {
              "internalType": "uint256",
              "name": "client_collateral",
              "type": "uint256"
            },
            {
              "internalType": "uint64",
              "name": "extra_params_version",
              "type": "uint64"
            },
            {
              "components": [
                {
                  "internalType": "string",
                  "name": "location_ref",
                  "type": "string"
                },
                {
                  "internalType": "uint64",
                  "name": "car_size",
                  "type": "uint64"
                },
                {
                  "internalType": "bool",
                  "name": "skip_ipni_announce",
                  "type": "bool"
                },
                {
                  "internalType": "bool",
                  "name": "remove_unsealed_copy",
                  "type": "bool"
                }
              ],
              "internalType": "struct ExtraParamsV1",
              "name": "extra_params",
              "type": "tuple"
            }
          ],
          "internalType": "struct DealRequest",
          "name": "deal",
          "type": "tuple"
        }
      ],
      "name": "proposeDeal",
      "outputs": [],
      "stateMutability": "payable",
      "type": "function"
    },
    {
      "inputs": [
        {
          "internalType": "string",
          "name": "minerId",
          "type": "string"
        },
        {
          "internalType": "address payable",
          "name": "paymentReceiver",
          "type": "address"
        },
        {
          "internalType": "address",
          "name": "paymentToken",
          "type": "address"
        },
        {
          "internalType": "uint256",
          "name": "pricePerGB",
          "type": "uint256"
        },
        {
          "internalType": "string",
          "name": "location",
          "type": "string"
        },
        {
          "internalType": "uint256",
          "name": "maxDealDuration",
          "type": "uint256"
        },
        {
          "internalType": "bool",
          "name": "retrieval",
          "type": "bool"
        },
        {
          "internalType": "bool",
          "name": "verifiedDeal",
          "type": "bool"
        }
      ],
      "name": "registerMiner",
      "outputs": [],
      "stateMutability": "payable",
      "type": "function"
    },
    {
      "inputs": [
        {
          "internalType": "uint256",
          "name": "",
          "type": "uint256"
        }
      ],
      "name": "registeredMinerIds",
      "outputs": [
        {
          "internalType": "string",
          "name": "",
          "type": "string"
        }
      ],
      "stateMutability": "view",
      "type": "function"
    },
    {
      "inputs": [],
      "name": "renounceOwnership",
      "outputs": [],
      "stateMutability": "nonpayable",
      "type": "function"
    },
    {
      "inputs": [
        {
          "internalType": "uint256",
          "name": "_stakeAmount",
          "type": "uint256"
        }
      ],
      "name": "setStakeAmount",
      "outputs": [],
      "stateMutability": "nonpayable",
      "type": "function"
    },
    {
      "inputs": [
        {
          "internalType": "string",
          "name": "_minerId",
          "type": "string"
        },
        {
          "components": [
            {
              "internalType": "uint256",
              "name": "minActivationCollateral",
              "type": "uint256"
            },
            {
              "internalType": "uint64",
              "name": "minValidators",
              "type": "uint64"
            },
            {
              "internalType": "uint64",
              "name": "bottomUpCheckPeriod",
              "type": "uint64"
            },
            {
              "internalType": "address",
              "name": "ipcGatewayAddr",
              "type": "address"
            },
            {
              "internalType": "uint16",
              "name": "activeValidatorsLimit",
              "type": "uint16"
            },
            {
              "internalType": "uint8",
              "name": "majorityPercentage",
              "type": "uint8"
            },
            {
              "internalType": "enum ConsensusType",
              "name": "consensus",
              "type": "uint8"
            },
            {
              "internalType": "int8",
              "name": "powerScale",
              "type": "int8"
            },
            {
              "internalType": "enum PermissionMode",
              "name": "permissionMode",
              "type": "uint8"
            },
            {
              "components": [
                {
                  "internalType": "enum SupplyKind",
                  "name": "kind",
                  "type": "uint8"
                },
                {
                  "internalType": "address",
                  "name": "tokenAddress",
                  "type": "address"
                }
              ],
              "internalType": "struct SupplySource",
              "name": "supplySource",
              "type": "tuple"
            },
            {
              "components": [
                {
                  "internalType": "uint64",
                  "name": "root",
                  "type": "uint64"
                },
                {
                  "internalType": "address[]",
                  "name": "route",
                  "type": "address[]"
                }
              ],
              "internalType": "struct SubnetID",
              "name": "parentId",
              "type": "tuple"
            }
          ],
          "internalType": "struct SubnetActorDiamond.ConstructorParams",
          "name": "_params",
          "type": "tuple"
        }
      ],
      "name": "spinSubnet",
      "outputs": [],
      "stateMutability": "nonpayable",
      "type": "function"
    },
    {
      "inputs": [],
      "name": "stakeAmount",
      "outputs": [
        {
          "internalType": "uint256",
          "name": "",
          "type": "uint256"
        }
      ],
      "stateMutability": "view",
      "type": "function"
    },
    {
      "inputs": [],
      "name": "subnetRegistry",
      "outputs": [
        {
          "internalType": "contract IRegisterSubnetFacet",
          "name": "",
          "type": "address"
        }
      ],
      "stateMutability": "view",
      "type": "function"
    },
    {
      "inputs": [],
      "name": "tellorRetrieval",
      "outputs": [
        {
          "internalType": "contract IRetrieval",
          "name": "",
          "type": "address"
        }
      ],
      "stateMutability": "view",
      "type": "function"
    },
    {
      "inputs": [
        {
          "internalType": "address",
          "name": "newOwner",
          "type": "address"
        }
      ],
      "name": "transferOwnership",
      "outputs": [],
      "stateMutability": "nonpayable",
      "type": "function"
    },
    {
      "inputs": [
        {
          "internalType": "address",
          "name": "",
          "type": "address"
        },
        {
          "internalType": "uint256",
          "name": "",
          "type": "uint256"
        }
      ],
      "name": "userDeals",
      "outputs": [
        {
          "internalType": "bytes32",
          "name": "",
          "type": "bytes32"
        }
      ],
      "stateMutability": "view",
      "type": "function"
    }
  ],
  "bytecode": "0x60806040523480156200001157600080fd5b5060405162002a2a38038062002a2a83398101604081905262000034916200011a565b33806200005b57604051631e4fbdf760e01b81526000600482015260240160405180910390fd5b6200006681620000ad565b50600380546001600160a01b03199081166001600160a01b03968716179091556004805482169486169490941790935560058054909316919093161790556001556200016c565b600080546001600160a01b038381166001600160a01b0319831681178455604051919092169283917f8be0079c531659141344cd1fd0a4f28419497f9722a3daafe3b4186f6b6457e09190a35050565b80516001600160a01b03811681146200011557600080fd5b919050565b600080600080608085870312156200013157600080fd5b6200013c85620000fd565b93506200014c60208601620000fd565b92506200015c60408601620000fd565b6060959095015193969295505050565b6128ae806200017c6000396000f3fe6080604052600436106101055760003560e01c8063173644421461010a5780632040784214610148578063288401641461018b5780632df9b1c2146101c35780632e3f0405146101e35780633e0beca21461021057806343808c501461023057806349c3c982146102525780635839ff0f146102805780635fbd47e6146102a057806360c7dc47146102b35780636631d58c146102c95780636b71d315146102e9578063715018a6146103095780637dc813de1461031e5780637fb683341461033157806380491663146103685780638da5cb5b146103885780639a63487b1461039d578063cffd46dc146103bf578063f23d25fc146103df578063f2fde38b146103ff575b600080fd5b34801561011657600080fd5b5061012a610125366004611746565b61041f565b60405161013f999897969594939291906117ca565b60405180910390f35b34801561015457600080fd5b5061017e61016336600461183f565b6008602052600090815260409020546001600160a01b031681565b60405161013f9190611858565b34801561019757600080fd5b506101ab6101a636600461186c565b6105a1565b6040516001600160401b03909116815260200161013f565b3480156101cf57600080fd5b5060035461017e906001600160a01b031681565b3480156101ef57600080fd5b506102036101fe3660046118d9565b610619565b60405161013f91906118f6565b34801561021c57600080fd5b5060055461017e906001600160a01b031681565b34801561023c57600080fd5b5061025061024b36600461183f565b6106b3565b005b34801561025e57600080fd5b5061027261026d366004611909565b6106c0565b60405190815260200161013f565b34801561028c57600080fd5b5061025061029b36600461194d565b610700565b6102506102ae3660046119b8565b610860565b3480156102bf57600080fd5b5061027260015481565b3480156102d557600080fd5b506102036102e436600461183f565b610d33565b3480156102f557600080fd5b50610272610304366004611a18565b610d5e565b34801561031557600080fd5b50610250610d7a565b61025061032c366004611a5d565b610d8e565b34801561033d57600080fd5b5061035161034c36600461183f565b611043565b60405161013f9b9a99989796959493929190611b70565b34801561037457600080fd5b5060045461017e906001600160a01b031681565b34801561039457600080fd5b5061017e6112a5565b3480156103a957600080fd5b506103b26112b4565b60405161013f9190611c06565b3480156103cb57600080fd5b506102506103da36600461183f565b61138d565b3480156103eb57600080fd5b506102726103fa366004611c6a565b61158f565b34801561040b57600080fd5b5061025061041a3660046118d9565b6115b4565b805160208183018101805160068252928201919093012091528054819061044590611c8c565b80601f016020809104026020016040519081016040528092919081815260200182805461047190611c8c565b80156104be5780601f10610493576101008083540402835291602001916104be565b820191906000526020600020905b8154815290600101906020018083116104a157829003601f168201915b5050505060018301546002840154600385015460048601805495966001600160a01b039485169694909316945090926104f690611c8c565b80601f016020809104026020016040519081016040528092919081815260200182805461052290611c8c565b801561056f5780601f106105445761010080835404028352916020019161056f565b820191906000526020600020905b81548152906001019060200180831161055257829003601f168201915b50505050600583015460069093015491929160ff8082169250610100820416906201000090046001600160a01b031689565b600354604051630a0e0c9160e01b81526000916001600160a01b031690630a0e0c91906105d29085906004016118f6565b602060405180830381865afa1580156105ef573d6000803e3d6000fd5b505050506040513d601f19601f820116820180604052508101906106139190611cdb565b92915050565b6007602052600090815260409020805461063290611c8c565b80601f016020809104026020016040519081016040528092919081815260200182805461065e90611c8c565b80156106ab5780601f10610680576101008083540402835291602001916106ab565b820191906000526020600020905b81548152906001019060200180831161068e57829003601f168201915b505050505081565b6106bb6115f2565b600155565b8151602081840181018051600b8252928201918501919091209190528054829081106106eb57600080fd5b90600052602060002001600091509150505481565b816040516020016107119190611cf8565b60408051601f19818403018152828252805160209182012033600090815260078352929092209192610744929101611d14565b60405160208183030381529060405280519060200120146107a15760405162461bcd60e51b81526020600482015260126024820152712ab730baba3437b934bd32b21036b4b732b960711b60448201526064015b60405180910390fd5b60006006836040516107b39190611cf8565b90815260405190819003602001812060055463fc3b0ad360e01b83529092506001600160a01b03169063fc3b0ad3906107f0908590600401611f29565b6020604051808303816000875af115801561080f573d6000803e3d6000fd5b505050506040513d601f19601f820116820180604052508101906108339190612040565b8160060160026101000a8154816001600160a01b0302191690836001600160a01b03160217905550505050565b60006006836040516108729190611cf8565b90815260200160405180910390206040518061012001604052908160008201805461089c90611c8c565b80601f01602080910402602001604051908101604052809291908181526020018280546108c890611c8c565b80156109155780601f106108ea57610100808354040283529160200191610915565b820191906000526020600020905b8154815290600101906020018083116108f857829003601f168201915b505050918352505060018201546001600160a01b03908116602083015260028301541660408201526003820154606082015260048201805460809092019161095c90611c8c565b80601f016020809104026020016040519081016040528092919081815260200182805461098890611c8c565b80156109d55780601f106109aa576101008083540402835291602001916109d5565b820191906000526020600020905b8154815290600101906020018083116109b857829003601f168201915b5050509183525050600582015460208083019190915260069092015460ff80821615156040840152610100820416151560608301526001600160a01b036201000090910481166080909201919091529082015191925016610a6f5760405162461bcd60e51b8152602060048201526014602482015273135a5b995c881b9bdd081c9959da5cdd195c995960621b6044820152606401610798565b6060810151600090610a9990610a8b604086016020870161205d565b6001600160401b031661158f565b60408301519091506001600160a01b0316610b3d5780341015610afa5760405162461bcd60e51b8152602060048201526019602482015278125b9cdd59999a58da595b9d081919585b081c185e5b595b9d603a1b6044820152606401610798565b81602001516001600160a01b03166108fc829081150290604051600060405180830381858888f19350505050158015610b37573d6000803e3d6000fd5b50610c01565b604082810151602084015191516323b872dd60e01b81523360048201526001600160a01b0392831660248201526044810184905290918216906323b872dd906064016020604051808303816000875af1158015610b9e573d6000803e3d6000fd5b505050506040513d601f19601f82011682018060405250810190610bc2919061207a565b610bff5760405162461bcd60e51b815260206004820152600e60248201526d14185e5b595b9d0819985a5b195960921b6044820152606401610798565b505b600354604051630dd27fe960e41b81526000916001600160a01b03169063dd27fe9090610c329087906004016121af565b6020604051808303816000875af1158015610c51573d6000803e3d6000fd5b505050506040513d601f19601f82011682018060405250810190610c7591906122e7565b60008181526009602052604090209091508490610c9282826125f3565b5050336000908152600a602090815260408083208054600181018255908452919092200182905551600b90610cc8908790611cf8565b908152604051908190036020908101822080546001810182556000918252919020018290553390610cfa908790611cf8565b6040519081900381209083907f21b9417db29ae385dd6589f9727ad3908e1731fa16a81d39894115c5a255bbd390600090a45050505050565b60028181548110610d4357600080fd5b90600052602060002001600091509050805461063290611c8c565b600a60205281600052604060002081815481106106eb57600080fd5b610d826115f2565b610d8c6000611624565b565b600154341015610dd95760405162461bcd60e51b8152602060048201526016602482015275125b98dbdc9c9958dd081cdd185ad948185b5bdd5b9d60521b6044820152606401610798565b60006001600160a01b0316600689604051610df49190611cf8565b908152604051908190036020019020600101546001600160a01b031614610e585760405162461bcd60e51b8152602060048201526018602482015277135a5b995c88185b1c9958591e481c9959da5cdd195c995960421b6044820152606401610798565b604051806101200160405280898152602001886001600160a01b03168152602001876001600160a01b0316815260200186815260200185815260200184815260200183151581526020018215158152602001306001600160a01b0316815250600689604051610ec79190611cf8565b90815260405190819003602001902081518190610ee4908261270b565b5060208201516001820180546001600160a01b039283166001600160a01b03199182161790915560408401516002840180549190931691161790556060820151600382015560808201516004820190610f3d908261270b565b5060a0820151600582015560c08201516006909101805460e08401516101009485015161ffff1990921693151561ff001916939093179215159093029190911762010000600160b01b031916620100006001600160a01b0390931692909202919091179055600280546001810182556000919091527f405787fa12a823e0f2b7631cc41b3ba8828b3321ca811111fa75cd3aa3bb5ace01610fde898261270b565b50336000908152600760205260409020610ff8898261270b565b506040513390611009908a90611cf8565b604051908190038120907f6089459bbb55e2570581a3849f925baf438ec041e0f55b57496958279b42667990600090a35050505050505050565b60096020526000908152604090208054819061105e90611c8c565b80601f016020809104026020016040519081016040528092919081815260200182805461108a90611c8c565b80156110d75780601f106110ac576101008083540402835291602001916110d7565b820191906000526020600020905b8154815290600101906020018083116110ba57829003601f168201915b50505050600183015460028401805493946001600160401b03831694600160401b90930460ff1693509161110a90611c8c565b80601f016020809104026020016040519081016040528092919081815260200182805461113690611c8c565b80156111835780601f1061115857610100808354040283529160200191611183565b820191906000526020600020905b81548152906001019060200180831161116657829003601f168201915b5050506003840154600485015460058601546006870154600780890154604080516080810190915260088b0180549a9b88850b9b600160401b90990490940b9950959750939592946001600160401b03909116939192829082906111e690611c8c565b80601f016020809104026020016040519081016040528092919081815260200182805461121290611c8c565b801561125f5780601f106112345761010080835404028352916020019161125f565b820191906000526020600020905b81548152906001019060200180831161124257829003601f168201915b5050509183525050600191909101546001600160401b038116602083015260ff600160401b8204811615156040840152600160481b90910416151560609091015290508b565b6000546001600160a01b031690565b60606002805480602002602001604051908101604052809291908181526020016000905b828210156113845783829060005260206000200180546112f790611c8c565b80601f016020809104026020016040519081016040528092919081815260200182805461132390611c8c565b80156113705780601f1061134557610100808354040283529160200191611370565b820191906000526020600020905b81548152906001019060200180831161135357829003601f168201915b5050505050815260200190600101906112d8565b50505050905090565b6000818152600860205260409020546001600160a01b031633146113ef5760405162461bcd60e51b81526020600482015260196024820152782ab730baba3437b934b9b2b2103232b0b61031b932b0ba37b960391b6044820152606401610798565b6000818152600960205260408120600201805461140b90611c8c565b80601f016020809104026020016040519081016040528092919081815260200182805461143790611c8c565b80156114845780601f1061145957610100808354040283529160200191611484565b820191906000526020600020905b81548152906001019060200180831161146757829003601f168201915b50506004805460405163eb09607760e01b81529596506000956001600160a01b03909116945063eb09607793506114be92508691016118f6565b6000604051808303816000875af11580156114dd573d6000803e3d6000fd5b505050506040513d6000823e601f3d908101601f1916820160405261150591908101906127c4565b9050806040516020016115189190611cf8565b604051602081830303815290604052805190602001208260405160200161153f9190611cf8565b604051602081830303815290604052805190602001201461158a57600154604051339180156108fc02916000818181858888f19350505050158015611588573d6000803e3d6000fd5b505b505050565b6000806115a0634000000084612831565b90506115ac8185612853565b949350505050565b6115bc6115f2565b6001600160a01b0381166115e6576000604051631e4fbdf760e01b81526004016107989190611858565b6115ef81611624565b50565b336115fb6112a5565b6001600160a01b031614610d8c573360405163118cdaa760e01b81526004016107989190611858565b600080546001600160a01b038381166001600160a01b0319831681178455604051919092169283917f8be0079c531659141344cd1fd0a4f28419497f9722a3daafe3b4186f6b6457e09190a35050565b634e487b7160e01b600052604160045260246000fd5b604051601f8201601f191681016001600160401b03811182821017156116b2576116b2611674565b604052919050565b60006001600160401b038211156116d3576116d3611674565b50601f01601f191660200190565b60006116f46116ef846116ba565b61168a565b905082815283838301111561170857600080fd5b828260208301376000602084830101529392505050565b600082601f83011261173057600080fd5b61173f838335602085016116e1565b9392505050565b60006020828403121561175857600080fd5b81356001600160401b0381111561176e57600080fd5b6115ac8482850161171f565b60005b8381101561179557818101518382015260200161177d565b50506000910152565b600081518084526117b681602086016020860161177a565b601f01601f19169290920160200192915050565b60006101208083526117de8184018d61179e565b6001600160a01b038c811660208601528b81166040860152606085018b90528482036080860152909150611812828a61179e565b60a085019890985295151560c0840152505091151560e08301529091166101009091015295945050505050565b60006020828403121561185157600080fd5b5035919050565b6001600160a01b0391909116815260200190565b60006020828403121561187e57600080fd5b81356001600160401b0381111561189457600080fd5b8201601f810184136118a557600080fd5b6115ac848235602084016116e1565b6001600160a01b03811681146115ef57600080fd5b80356118d4816118b4565b919050565b6000602082840312156118eb57600080fd5b813561173f816118b4565b60208152600061173f602083018461179e565b6000806040838503121561191c57600080fd5b82356001600160401b0381111561193257600080fd5b61193e8582860161171f565b95602094909401359450505050565b6000806040838503121561196057600080fd5b82356001600160401b038082111561197757600080fd5b6119838683870161171f565b9350602085013591508082111561199957600080fd5b50830161018081860312156119ad57600080fd5b809150509250929050565b600080604083850312156119cb57600080fd5b82356001600160401b03808211156119e257600080fd5b6119ee8683870161171f565b93506020850135915080821115611a0457600080fd5b50830161016081860312156119ad57600080fd5b60008060408385031215611a2b57600080fd5b8235611a36816118b4565b946020939093013593505050565b80151581146115ef57600080fd5b80356118d481611a44565b600080600080600080600080610100898b031215611a7a57600080fd5b88356001600160401b0380821115611a9157600080fd5b611a9d8c838d0161171f565b995060208b01359150611aaf826118b4565b90975060408a013590611ac1826118b4565b90965060608a0135955060808a01359080821115611ade57600080fd5b50611aeb8b828c0161171f565b94505060a0890135925060c0890135611b0381611a44565b915060e0890135611b1381611a44565b809150509295985092959890939650565b6000815160808452611b39608085018261179e565b90506001600160401b0360208401511660208501526040830151151560408501526060830151151560608501528091505092915050565b6000610160808352611b848184018f61179e565b90506001600160401b03808e1660208501528c151560408501528382036060850152611bb0828d61179e565b91508a60070b60808501528960070b60a08501528860c08501528760e08501528661010085015280861661012085015250828103610140840152611bf48185611b24565b9e9d5050505050505050505050505050565b600060208083016020845280855180835260408601915060408160051b87010192506020870160005b82811015611c5d57603f19888603018452611c4b85835161179e565b94509285019290850190600101611c2f565b5092979650505050505050565b60008060408385031215611c7d57600080fd5b50508035926020909101359150565b600181811c90821680611ca057607f821691505b602082108103611cc057634e487b7160e01b600052602260045260246000fd5b50919050565b6001600160401b03811681146115ef57600080fd5b600060208284031215611ced57600080fd5b815161173f81611cc6565b60008251611d0a81846020870161177a565b9190910192915050565b6000808354611d2281611c8c565b60018281168015611d3a5760018114611d4f57611d7e565b60ff1984168752821515830287019450611d7e565b8760005260208060002060005b85811015611d755781548a820152908401908201611d5c565b50505082870194505b50929695505050505050565b80356118d481611cc6565b803561ffff811681146118d457600080fd5b803560ff811681146118d457600080fd5b8035600181106118d457600080fd5b634e487b7160e01b600052602160045260246000fd5b60018110611ded57611ded611dc7565b9052565b8035600081900b81146118d457600080fd5b8035600381106118d457600080fd5b60038110611ded57611ded611dc7565b803560028110611e3157600080fd5b82526020810135611e41816118b4565b6001600160a01b03166020929092019190915250565b60008235603e19833603018112611e6d57600080fd5b90910192915050565b6000604083018235611e8781611cc6565b6001600160401b0390811685526020908482013536869003601e19018112611eae57600080fd5b850160208101903582811115611ec357600080fd5b8060051b3603821315611ed557600080fd5b6040602089015293849052926060870191506000905b80821015611f1d578435611efe816118b4565b6001600160a01b03168352938301939183019160019190910190611eeb565b50909695505050505050565b60208152813560208201526000611f4260208401611d8a565b6001600160401b038116604084015250611f5e60408401611d8a565b6001600160401b038116606084015250611f7a606084016118c9565b6001600160a01b038116608084015250611f9660808401611d95565b61ffff811660a084015250611fad60a08401611da7565b60ff811660c084015250611fc360c08401611db8565b611fd060e0840182611ddd565b50611fdd60e08401611df1565b610100611fee8185018360000b9052565b611ff9818601611e03565b91505061012061200b81850183611e12565b61201b6101408501828701611e22565b505061202b610160840184611e57565b610180838101526115ac6101a0840182611e76565b60006020828403121561205257600080fd5b815161173f816118b4565b60006020828403121561206f57600080fd5b813561173f81611cc6565b60006020828403121561208c57600080fd5b815161173f81611a44565b6000808335601e198436030181126120ae57600080fd5b83016020810192503590506001600160401b038111156120cd57600080fd5b8036038213156120dc57600080fd5b9250929050565b81835281816020850137506000828201602090810191909152601f909101601f19169091010190565b8060070b81146115ef57600080fd5b80356118d48161210c565b60008235607e19833603018112611e6d57600080fd5b60006121488283612097565b6080855261215a6080860182846120e3565b915050602083013561216b81611cc6565b6001600160401b03166020850152604083013561218781611a44565b15156040850152606083013561219c81611a44565b8015156060860152508091505092915050565b6020815260006121bf8384612097565b6101608060208601526121d7610180860183856120e3565b92506121e560208701611d8a565b6001600160401b0381166040870152915061220260408701611a52565b801515606087015291506122196060870187612097565b9250601f19808786030160808801526122338585846120e3565b94506122416080890161211b565b935061225260a088018560070b9052565b61225e60a0890161211b565b935061226f60c088018560070b9052565b60c088013560e0880152610100935060e0880135848801526101209150838801358288015261229f828901611d8a565b935061014091506122ba828801856001600160401b03169052565b6122c682890189612126565b93508087860301838801525050506122de828261213c565b95945050505050565b6000602082840312156122f957600080fd5b5051919050565b6000808335601e1984360301811261231757600080fd5b8301803591506001600160401b0382111561233157600080fd5b6020019150368190038213156120dc57600080fd5b601f82111561158a576000816000526020600020601f850160051c8101602086101561236f5750805b601f850160051c820191505b8181101561238e5782815560010161237b565b505050505050565b600019600383901b1c191660019190911b1790565b6001600160401b038311156123c2576123c2611674565b6123d6836123d08354611c8c565b83612346565b6000601f84116001811461240457600085156123f25750838201355b6123fc8682612396565b84555061245e565b600083815260209020601f19861690835b828110156124355786850135825560209485019460019092019101612415565b50868210156124525760001960f88860031b161c19848701351681555b505060018560011b0183555b5050505050565b6000813561061381611cc6565b6001600160401b0382166001600160401b03198254161781555050565b6000813561061381611a44565b600081356106138161210c565b60008235607e19833603018112611d0a57600080fd5b6124c98283612300565b6001600160401b038111156124e0576124e0611674565b6124f4816124ee8554611c8c565b85612346565b6000601f82116001811461252257600083156125105750838201355b61251a8482612396565b86555061257c565b600085815260209020601f19841690835b828110156125535786850135825560209485019460019092019101612533565b50848210156125705760001960f88660031b161c19848701351681555b505060018360011b0185555b505050506001810161259961259360208501612465565b82612472565b6125c66125a86040850161248f565b82805460ff60401b191691151560401b60ff60401b16919091179055565b61158a6125d56060850161248f565b82805460ff60481b191691151560481b60ff60481b16919091179055565b6125fd8283612300565b6126088183856123ab565b50506001810161261d61259360208501612465565b61262c6125a86040850161248f565b5061263a6060830183612300565b6126488183600286016123ab565b50506003810161267b61265d6080850161249c565b825467ffffffffffffffff19166001600160401b0391909116178255565b6126b461268a60a0850161249c565b825460409190911b67ffffffffffffffff60401b1667ffffffffffffffff60401b19909116178255565b5060c0820135600482015560e0820135600582015561010082013560068201556126ed6126e46101208401612465565b60078301612472565b6127076126fe6101408401846124a9565b600883016124bf565b5050565b81516001600160401b0381111561272457612724611674565b612738816127328454611c8c565b84612346565b602080601f83116001811461276757600084156127555750858301515b61275f8582612396565b86555061238e565b600085815260208120601f198616915b8281101561279657888601518255948401946001909101908401612777565b50858210156127b45787850151600019600388901b60f8161c191681555b5050505050600190811b01905550565b6000602082840312156127d657600080fd5b81516001600160401b038111156127ec57600080fd5b8201601f810184136127fd57600080fd5b805161280b6116ef826116ba565b81815285602083850101111561282057600080fd5b6122de82602083016020860161177a565b60008261284e57634e487b7160e01b600052601260045260246000fd5b500490565b808202811582820484141761061357634e487b7160e01b600052601160045260246000fdfea26469706673582212200284f186051179bb0c913ef90e4ce41d1878328672d4c5dc3128c7976a7b2a6764736f6c63430008170033",
  "linkReferences": {},
  "deployedLinkReferences": {}
}