{
  "_format": "hh-sol-artifact-1",
  "contractName": "DealClient",
  "sourceName": "contracts/DealClient.sol",
  "abi": [
    {
      "inputs": [],
      "stateMutability": "nonpayable",
      "type": "constructor"
    },
    {
      "inputs": [
        {
          "internalType": "int256",
          "name": "errorCode",
          "type": "int256"
        }
      ],
      "name": "ActorError",
      "type": "error"
    },
    {
      "inputs": [],
      "name": "ActorNotFound",
      "type": "error"
    },
    {
      "inputs": [],
      "name": "FailToCallActor",
      "type": "error"
    },
    {
      "inputs": [],
      "name": "InvalidAddress",
      "type": "error"
    },
    {
      "inputs": [
        {
          "internalType": "uint64",
          "name": "",
          "type": "uint64"
        }
      ],
      "name": "InvalidCodec",
      "type": "error"
    },
    {
      "inputs": [],
      "name": "InvalidResponseLength",
      "type": "error"
    },
    {
      "inputs": [],
      "name": "NegativeValueNotAllowed",
      "type": "error"
    },
    {
      "inputs": [
        {
          "internalType": "uint256",
          "name": "balance",
          "type": "uint256"
        },
        {
          "internalType": "uint256",
          "name": "value",
          "type": "uint256"
        }
      ],
      "name": "NotEnoughBalance",
      "type": "error"
    },
    {
      "anonymous": false,
      "inputs": [
        {
          "indexed": true,
          "internalType": "bytes32",
          "name": "id",
          "type": "bytes32"
        },
        {
          "indexed": false,
          "internalType": "uint64",
          "name": "size",
          "type": "uint64"
        },
        {
          "indexed": true,
          "internalType": "bool",
          "name": "verified",
          "type": "bool"
        },
        {
          "indexed": false,
          "internalType": "uint256",
          "name": "price",
          "type": "uint256"
        }
      ],
      "name": "DealProposalCreate",
      "type": "event"
    },
    {
      "anonymous": false,
      "inputs": [
        {
          "indexed": false,
          "internalType": "string",
          "name": "received",
          "type": "string"
        }
      ],
      "name": "ReceivedDataCap",
      "type": "event"
    },
    {
      "inputs": [],
      "name": "AUTHENTICATE_MESSAGE_METHOD_NUM",
      "outputs": [
        {
          "internalType": "uint64",
          "name": "",
          "type": "uint64"
        }
      ],
      "stateMutability": "view",
      "type": "function"
    },
    {
      "inputs": [],
      "name": "DATACAP_ACTOR_ETH_ADDRESS",
      "outputs": [
        {
          "internalType": "address",
          "name": "",
          "type": "address"
        }
      ],
      "stateMutability": "view",
      "type": "function"
    },
    {
      "inputs": [],
      "name": "DATACAP_RECEIVER_HOOK_METHOD_NUM",
      "outputs": [
        {
          "internalType": "uint64",
          "name": "",
          "type": "uint64"
        }
      ],
      "stateMutability": "view",
      "type": "function"
    },
    {
      "inputs": [],
      "name": "MARKET_ACTOR_ETH_ADDRESS",
      "outputs": [
        {
          "internalType": "address",
          "name": "",
          "type": "address"
        }
      ],
      "stateMutability": "view",
      "type": "function"
    },
    {
      "inputs": [],
      "name": "MARKET_NOTIFY_DEAL_METHOD_NUM",
      "outputs": [
        {
          "internalType": "uint64",
          "name": "",
          "type": "uint64"
        }
      ],
      "stateMutability": "view",
      "type": "function"
    },
    {
      "inputs": [
        {
          "internalType": "uint256",
          "name": "value",
          "type": "uint256"
        }
      ],
      "name": "addBalance",
      "outputs": [],
      "stateMutability": "nonpayable",
      "type": "function"
    },
    {
      "inputs": [
        {
          "internalType": "bytes32",
          "name": "",
          "type": "bytes32"
        }
      ],
      "name": "dealRequestIdx",
      "outputs": [
        {
          "internalType": "uint256",
          "name": "idx",
          "type": "uint256"
        },
        {
          "internalType": "bool",
          "name": "valid",
          "type": "bool"
        }
      ],
      "stateMutability": "view",
      "type": "function"
    },
    {
      "inputs": [
        {
          "internalType": "uint256",
          "name": "",
          "type": "uint256"
        }
      ],
      "name": "dealRequests",
      "outputs": [
        {
          "internalType": "bytes",
          "name": "piece_cid",
          "type": "bytes"
        },
        {
          "internalType": "uint64",
          "name": "piece_size",
          "type": "uint64"
        },
        {
          "internalType": "bool",
          "name": "verified_deal",
          "type": "bool"
        },
        {
          "internalType": "string",
          "name": "label",
          "type": "string"
        },
        {
          "internalType": "int64",
          "name": "start_epoch",
          "type": "int64"
        },
        {
          "internalType": "int64",
          "name": "end_epoch",
          "type": "int64"
        },
        {
          "internalType": "uint256",
          "name": "storage_price_per_epoch",
          "type": "uint256"
        },
        {
          "internalType": "uint256",
          "name": "provider_collateral",
          "type": "uint256"
        },
        {
          "internalType": "uint256",
          "name": "client_collateral",
          "type": "uint256"
        },
        {
          "internalType": "uint64",
          "name": "extra_params_version",
          "type": "uint64"
        },
        {
          "components": [
            {
              "internalType": "string",
              "name": "location_ref",
              "type": "string"
            },
            {
              "internalType": "uint64",
              "name": "car_size",
              "type": "uint64"
            },
            {
              "internalType": "bool",
              "name": "skip_ipni_announce",
              "type": "bool"
            },
            {
              "internalType": "bool",
              "name": "remove_unsealed_copy",
              "type": "bool"
            }
          ],
          "internalType": "struct ExtraParamsV1",
          "name": "extra_params",
          "type": "tuple"
        }
      ],
      "stateMutability": "view",
      "type": "function"
    },
    {
      "inputs": [],
      "name": "dealsLength",
      "outputs": [
        {
          "internalType": "uint256",
          "name": "",
          "type": "uint256"
        }
      ],
      "stateMutability": "view",
      "type": "function"
    },
    {
      "inputs": [
        {
          "internalType": "uint256",
          "name": "index",
          "type": "uint256"
        }
      ],
      "name": "getDealByIndex",
      "outputs": [
        {
          "components": [
            {
              "internalType": "bytes",
              "name": "piece_cid",
              "type": "bytes"
            },
            {
              "internalType": "uint64",
              "name": "piece_size",
              "type": "uint64"
            },
            {
              "internalType": "bool",
              "name": "verified_deal",
              "type": "bool"
            },
            {
              "internalType": "string",
              "name": "label",
              "type": "string"
            },
            {
              "internalType": "int64",
              "name": "start_epoch",
              "type": "int64"
            },
            {
              "internalType": "int64",
              "name": "end_epoch",
              "type": "int64"
            },
            {
              "internalType": "uint256",
              "name": "storage_price_per_epoch",
              "type": "uint256"
            },
            {
              "internalType": "uint256",
              "name": "provider_collateral",
              "type": "uint256"
            },
            {
              "internalType": "uint256",
              "name": "client_collateral",
              "type": "uint256"
            },
            {
              "internalType": "uint64",
              "name": "extra_params_version",
              "type": "uint64"
            },
            {
              "components": [
                {
                  "internalType": "string",
                  "name": "location_ref",
                  "type": "string"
                },
                {
                  "internalType": "uint64",
                  "name": "car_size",
                  "type": "uint64"
                },
                {
                  "internalType": "bool",
                  "name": "skip_ipni_announce",
                  "type": "bool"
                },
                {
                  "internalType": "bool",
                  "name": "remove_unsealed_copy",
                  "type": "bool"
                }
              ],
              "internalType": "struct ExtraParamsV1",
              "name": "extra_params",
              "type": "tuple"
            }
          ],
          "internalType": "struct DealRequest",
          "name": "",
          "type": "tuple"
        }
      ],
      "stateMutability": "view",
      "type": "function"
    },
    {
      "inputs": [
        {
          "internalType": "bytes32",
          "name": "proposalId",
          "type": "bytes32"
        }
      ],
      "name": "getDealProposal",
      "outputs": [
        {
          "internalType": "bytes",
          "name": "",
          "type": "bytes"
        }
      ],
      "stateMutability": "view",
      "type": "function"
    },
    {
      "inputs": [
        {
          "internalType": "bytes32",
          "name": "proposalId",
          "type": "bytes32"
        }
      ],
      "name": "getExtraParams",
      "outputs": [
        {
          "internalType": "bytes",
          "name": "extra_params",
          "type": "bytes"
        }
      ],
      "stateMutability": "view",
      "type": "function"
    },
    {
      "inputs": [
        {
          "internalType": "bytes",
          "name": "cid",
          "type": "bytes"
        }
      ],
      "name": "getProposalIdSet",
      "outputs": [
        {
          "components": [
            {
              "internalType": "bytes32",
              "name": "requestId",
              "type": "bytes32"
            },
            {
              "internalType": "bool",
              "name": "valid",
              "type": "bool"
            }
          ],
          "internalType": "struct RequestId",
          "name": "",
          "type": "tuple"
        }
      ],
      "stateMutability": "view",
      "type": "function"
    },
    {
      "inputs": [
        {
          "internalType": "bytes",
          "name": "cid",
          "type": "bytes"
        }
      ],
      "name": "getProviderSet",
      "outputs": [
        {
          "components": [
            {
              "internalType": "bytes",
              "name": "provider",
              "type": "bytes"
            },
            {
              "internalType": "bool",
              "name": "valid",
              "type": "bool"
            }
          ],
          "internalType": "struct ProviderSet",
          "name": "",
          "type": "tuple"
        }
      ],
      "stateMutability": "view",
      "type": "function"
    },
    {
      "inputs": [
        {
          "internalType": "uint64",
          "name": "method",
          "type": "uint64"
        },
        {
          "internalType": "uint64",
          "name": "",
          "type": "uint64"
        },
        {
          "internalType": "bytes",
          "name": "params",
          "type": "bytes"
        }
      ],
      "name": "handle_filecoin_method",
      "outputs": [
        {
          "internalType": "uint32",
          "name": "",
          "type": "uint32"
        },
        {
          "internalType": "uint64",
          "name": "",
          "type": "uint64"
        },
        {
          "internalType": "bytes",
          "name": "",
          "type": "bytes"
        }
      ],
      "stateMutability": "nonpayable",
      "type": "function"
    },
    {
      "inputs": [
        {
          "components": [
            {
              "internalType": "bytes",
              "name": "piece_cid",
              "type": "bytes"
            },
            {
              "internalType": "uint64",
              "name": "piece_size",
              "type": "uint64"
            },
            {
              "internalType": "bool",
              "name": "verified_deal",
              "type": "bool"
            },
            {
              "internalType": "string",
              "name": "label",
              "type": "string"
            },
            {
              "internalType": "int64",
              "name": "start_epoch",
              "type": "int64"
            },
            {
              "internalType": "int64",
              "name": "end_epoch",
              "type": "int64"
            },
            {
              "internalType": "uint256",
              "name": "storage_price_per_epoch",
              "type": "uint256"
            },
            {
              "internalType": "uint256",
              "name": "provider_collateral",
              "type": "uint256"
            },
            {
              "internalType": "uint256",
              "name": "client_collateral",
              "type": "uint256"
            },
            {
              "internalType": "uint64",
              "name": "extra_params_version",
              "type": "uint64"
            },
            {
              "components": [
                {
                  "internalType": "string",
                  "name": "location_ref",
                  "type": "string"
                },
                {
                  "internalType": "uint64",
                  "name": "car_size",
                  "type": "uint64"
                },
                {
                  "internalType": "bool",
                  "name": "skip_ipni_announce",
                  "type": "bool"
                },
                {
                  "internalType": "bool",
                  "name": "remove_unsealed_copy",
                  "type": "bool"
                }
              ],
              "internalType": "struct ExtraParamsV1",
              "name": "extra_params",
              "type": "tuple"
            }
          ],
          "internalType": "struct DealRequest",
          "name": "deal",
          "type": "tuple"
        }
      ],
      "name": "makeDealProposal",
      "outputs": [
        {
          "internalType": "bytes32",
          "name": "",
          "type": "bytes32"
        }
      ],
      "stateMutability": "nonpayable",
      "type": "function"
    },
    {
      "inputs": [],
      "name": "owner",
      "outputs": [
        {
          "internalType": "address",
          "name": "",
          "type": "address"
        }
      ],
      "stateMutability": "view",
      "type": "function"
    },
    {
      "inputs": [
        {
          "internalType": "bytes",
          "name": "",
          "type": "bytes"
        }
      ],
      "name": "pieceDeals",
      "outputs": [
        {
          "internalType": "uint64",
          "name": "",
          "type": "uint64"
        }
      ],
      "stateMutability": "view",
      "type": "function"
    },
    {
      "inputs": [
        {
          "internalType": "bytes",
          "name": "",
          "type": "bytes"
        }
      ],
      "name": "pieceProviders",
      "outputs": [
        {
          "internalType": "bytes",
          "name": "provider",
          "type": "bytes"
        },
        {
          "internalType": "bool",
          "name": "valid",
          "type": "bool"
        }
      ],
      "stateMutability": "view",
      "type": "function"
    },
    {
      "inputs": [
        {
          "internalType": "bytes",
          "name": "",
          "type": "bytes"
        }
      ],
      "name": "pieceRequests",
      "outputs": [
        {
          "internalType": "bytes32",
          "name": "requestId",
          "type": "bytes32"
        },
        {
          "internalType": "bool",
          "name": "valid",
          "type": "bool"
        }
      ],
      "stateMutability": "view",
      "type": "function"
    },
    {
      "inputs": [
        {
          "internalType": "bytes",
          "name": "",
          "type": "bytes"
        }
      ],
      "name": "pieceStatus",
      "outputs": [
        {
          "internalType": "enum DealClient.Status",
          "name": "",
          "type": "uint8"
        }
      ],
      "stateMutability": "view",
      "type": "function"
    },
    {
      "inputs": [
        {
          "internalType": "bytes",
          "name": "pieceCid",
          "type": "bytes"
        }
      ],
      "name": "updateActivationStatus",
      "outputs": [],
      "stateMutability": "nonpayable",
      "type": "function"
    },
    {
      "inputs": [
        {
          "internalType": "address",
          "name": "client",
          "type": "address"
        },
        {
          "internalType": "uint256",
          "name": "value",
          "type": "uint256"
        }
      ],
      "name": "withdrawBalance",
      "outputs": [
        {
          "internalType": "uint256",
          "name": "",
          "type": "uint256"
        }
      ],
      "stateMutability": "nonpayable",
      "type": "function"
    }
  ],
  "bytecode": "0x608060405234801561001057600080fd5b50600680546001600160a01b03191633179055614f55806100326000396000f3fe608060405234801561001057600080fd5b506004361061011c5760003560e01c8062706790146101215780630a0e0c91146101495780630cf20cc91461017d5780631adf7eb11461019e578063297ab486146101dd57806329aa3d2a146101e55780634634aed51461020b5780634e8a3ca41461022b5780636067f45414610260578063662637351461026b57806378133bb214610280578063868e10c4146102a05780638da5cb5b146102c257806396925ae6146102d5578063a6d1b7b8146102f5578063b34ba25214610330578063bad79de91461033b578063be965ce714610365578063d91921ed14610373578063dd27fe9014610386578063f44a890314610399578063f4b2e4d8146103c9578063f82704f0146103dc575b600080fd5b61012c639d8b067881565b6040516001600160401b0390911681526020015b60405180910390f35b61012c61015736600461404f565b80516020818301810180516004825292820191909301209152546001600160401b031681565b61019061018b366004614083565b6103fd565b604051908152602001610140565b6101c86101ac3660046140bb565b6000602081905290815260409020805460019091015460ff1682565b60408051928352901515602083015201610140565b600154610190565b6101f3600560ff60981b0181565b6040516001600160a01b039091168152602001610140565b61021e6102193660046140bb565b6104f1565b6040516101409190614124565b6101c861023936600461404f565b80516020818301810180516002825292820191909301209152805460019091015460ff1682565b61012c63f98c996681565b61027e61027936600461404f565b610515565b005b61029361028e366004614137565b610648565b60405161014091906141a8565b6102b36102ae3660046141f1565b610732565b60405161014093929190614252565b6006546101f3906001600160a01b031681565b6102e86102e33660046140bb565b610839565b60405161014091906142cc565b61032361030336600461404f565b805160208183018101805160058252928201919093012091525460ff1681565b60405161014091906143dd565b61012c63de180de381565b61034e6103493660046140bb565b610af3565b6040516101409b9a99989796959493929190614405565b6101f3600760ff60981b0181565b61027e6103813660046140bb565b610d6d565b61019061039436600461449b565b610d99565b6103ac6103a7366004614137565b61104d565b604080518251815260209283015115159281019290925201610140565b61021e6103d73660046140bb565b6110a6565b6103ef6103ea36600461404f565b611195565b6040516101409291906144d6565b6006546000906001600160a01b0316331461041757600080fd5b6000604051806040016040528061042d86611247565b815260200161043b8561128f565b90529050600061044a826112c8565b9050600080610458836112ff565b91509150806104e55760405162461bcd60e51b815260206004820152604860248201527f50726f626c656d7320636f6e76657274696e672077697468647261772062616c60448201527f616e636520696e746f2042696720496e742c206d617920636175736520616e206064820152676f766572666c6f7760c01b608482015260a4015b60405180910390fd5b50925050505b92915050565b606060006104fe83611380565b905061050e8161014001516116b1565b9392505050565b600060048260405161052791906144fa565b908152604051908190036020019020546001600160401b0316116105995760405162461bcd60e51b8152602060048201526024808201527f6e6f206465616c207075626c697368656420666f7220746869732070696563656044820152630818da5960e21b60648201526084016104dc565b60006105cc6004836040516105ae91906144fa565b908152604051908190036020019020546001600160401b0316611712565b90506000816020015160070b13156106225760046005836040516105f091906144fa565b908152604051908190036020019020805460ff19166001836004811115610619576106196143c7565b02179055505050565b6000816000015160070b13156106445760036005836040516105f091906144fa565b5050565b6040805180820190915260608152600060208201526003838360405161066f929190614516565b908152602001604051809103902060405180604001604052908160008201805461069890614526565b80601f01602080910402602001604051908101604052809291908181526020018280546106c490614526565b80156107115780601f106106e657610100808354040283529160200191610711565b820191906000526020600020905b8154815290600101906020018083116106f457829003601f168201915b50505091835250506001919091015460ff1615156020909101529392505050565b60008060608082639d8b0677196001600160401b03891601610785576107578661175f565b600061076360016119f6565b9050610770816001611a17565b61077981611a2e565b92506051915050610829565b63f98c9965196001600160401b038916016107a8576107a386611a79565b610829565b63de180de2196001600160401b038916016107c6576107a386611c37565b60405162461bcd60e51b815260206004820152603260248201527f7468652066696c65636f696e206d6574686f642074686174207761732063616c6044820152711b1959081a5cc81b9bdd081a185b991b195960721b60648201526084016104dc565b6000989097509095509350505050565b610841613e0a565b600182815481106108545761085461455a565b90600052602060002090600a02016040518061016001604052908160008201805461087e90614526565b80601f01602080910402602001604051908101604052809291908181526020018280546108aa90614526565b80156108f75780601f106108cc576101008083540402835291602001916108f7565b820191906000526020600020905b8154815290600101906020018083116108da57829003601f168201915b505050918352505060018201546001600160401b0381166020830152600160401b900460ff161515604082015260028201805460609092019161093990614526565b80601f016020809104026020016040519081016040528092919081815260200182805461096590614526565b80156109b25780601f10610987576101008083540402835291602001916109b2565b820191906000526020600020905b81548152906001019060200180831161099557829003601f168201915b50505091835250506003820154600781810b6020840152600160401b909104810b604080840191909152600484015460608401526005840154608080850191909152600685015460a0850152918401546001600160401b031660c08401528051918201905260088301805460e09093019282908290610a3090614526565b80601f0160208091040260200160405190810160405280929190818152602001828054610a5c90614526565b8015610aa95780601f10610a7e57610100808354040283529160200191610aa9565b820191906000526020600020905b815481529060010190602001808311610a8c57829003601f168201915b5050509183525050600191909101546001600160401b038116602083015260ff600160401b8204811615156040840152600160481b90910416151560609091015290525092915050565b60018181548110610b0357600080fd5b90600052602060002090600a0201600091509050806000018054610b2690614526565b80601f0160208091040260200160405190810160405280929190818152602001828054610b5290614526565b8015610b9f5780601f10610b7457610100808354040283529160200191610b9f565b820191906000526020600020905b815481529060010190602001808311610b8257829003601f168201915b50505050600183015460028401805493946001600160401b03831694600160401b90930460ff16935091610bd290614526565b80601f0160208091040260200160405190810160405280929190818152602001828054610bfe90614526565b8015610c4b5780601f10610c2057610100808354040283529160200191610c4b565b820191906000526020600020905b815481529060010190602001808311610c2e57829003601f168201915b5050506003840154600485015460058601546006870154600780890154604080516080810190915260088b0180549a9b88850b9b600160401b90990490940b9950959750939592946001600160401b0390911693919282908290610cae90614526565b80601f0160208091040260200160405190810160405280929190818152602001828054610cda90614526565b8015610d275780601f10610cfc57610100808354040283529160200191610d27565b820191906000526020600020905b815481529060010190602001808311610d0a57829003601f168201915b5050509183525050600191909101546001600160401b038116602083015260ff600160401b8204811615156040840152600160481b90910416151560609091015290508b565b6006546001600160a01b03163314610d8457600080fd5b610d96610d9030611247565b82611cfc565b50565b600060026005610da98480614570565b604051610db7929190614516565b9081526040519081900360200190205460ff166004811115610ddb57610ddb6143c7565b1480610e24575060036005610df08480614570565b604051610dfe929190614516565b9081526040519081900360200190205460ff166004811115610e2257610e226143c7565b145b15610e835760405162461bcd60e51b815260206004820152602960248201527f6465616c2077697468207468697320706965636543696420616c7265616479206044820152681c1d589b1a5cda195960ba1b60648201526084016104dc565b60018054808201825560009190915282600a82027fb10e2d527612073b26eecdfd717e6a320cf44b4afac2b0732d9fcbe2b7fa0cf601610ec38282614877565b5050604080514260208201526001600160601b03193360601b16918101919091526054810182905260009060740160408051808303601f1901815282825280516020918201208383018352858452600182850181815260008381528085528590209551865551948101805460ff1916951515959095179094558251808401909352808352908201929092529091506002610f5d8680614570565b604051610f6b929190614516565b90815260405160209181900382019020825181559101516001918201805460ff19169115159190911790556005610fa28680614570565b604051610fb0929190614516565b908152604051908190036020019020805460ff19166001836004811115610fd957610fd96143c7565b0217905550610fee606085016040860161498a565b1515817ffd6419d07e4c269e58d0c63969756c2124155b4a8d6dd08b8cd46e3a9acbf62561102260408801602089016149a7565b604080516001600160401b03909216825260c089013560208301520160405180910390a39392505050565b604080518082019091526000808252602082015260028383604051611073929190614516565b9081526040805191829003602090810183208383019092528154835260019091015460ff16151590820152905092915050565b606060006110b383611380565b90506110bd613e86565b604080516020808201835284518252908352838101516001600160401b031690830152828101511515908201526110f330611247565b60608201526111026000611d4a565b60808083019190915260408051808201909152606084015181526001602082015260a08084019190915290830151600790810b60c08085019190915291840151900b60e08301528201516111559061128f565b61010082015260e08201516111699061128f565b61012082015261010082015161117e9061128f565b61014082015261118d81611d98565b949350505050565b80516020818301810180516003825292820191909301209152805481906111bb90614526565b80601f01602080910402602001604051908101604052809291908181526020018280546111e790614526565b80156112345780601f1061120957610100808354040283529160200191611234565b820191906000526020600020905b81548152906001019060200180831161121757829003601f168201915b5050506001909301549192505060ff1682565b61124f613f04565b506040805160208101825261020560f11b8183015260609290921b6001600160601b03191660428301528051603681840301815260568301909152815290565b611297613f17565b60006112a4836000611fc8565b60408051808201909152815181526020918201511515918101919091529392505050565b6112d0613f17565b60006112db83611ffd565b905060006112f460056387ed0a64605185600080612097565b905061118d81612171565b600080826020015115611325576040516341820e7560e11b815260040160405180910390fd5b60006113346000196000611fc8565b9050600061134a856000015186602001516121cb565b905061135681836121df565b1561136957506000946001945092505050565b8051611374906149c4565b95600095509350505050565b611388613e0a565b600082815260208181526040918290208251808401909352805483526001015460ff1615159082018190526113fa5760405162461bcd60e51b815260206004820152601860248201527770726f706f73616c4964206e6f7420617661696c61626c6560401b60448201526064016104dc565b60018160000151815481106114115761141161455a565b90600052602060002090600a02016040518061016001604052908160008201805461143b90614526565b80601f016020809104026020016040519081016040528092919081815260200182805461146790614526565b80156114b45780601f10611489576101008083540402835291602001916114b4565b820191906000526020600020905b81548152906001019060200180831161149757829003601f168201915b505050918352505060018201546001600160401b0381166020830152600160401b900460ff16151560408201526002820180546060909201916114f690614526565b80601f016020809104026020016040519081016040528092919081815260200182805461152290614526565b801561156f5780601f106115445761010080835404028352916020019161156f565b820191906000526020600020905b81548152906001019060200180831161155257829003601f168201915b50505091835250506003820154600781810b6020840152600160401b909104810b604080840191909152600484015460608401526005840154608080850191909152600685015460a0850152918401546001600160401b031660c08401528051918201905260088301805460e090930192829082906115ed90614526565b80601f016020809104026020016040519081016040528092919081815260200182805461161990614526565b80156116665780601f1061163b57610100808354040283529160200191611666565b820191906000526020600020905b81548152906001019060200180831161164957829003601f168201915b5050509183525050600191909101546001600160401b038116602083015260ff600160401b8204811615156040840152600160481b9091041615156060909101529052509392505050565b606060006116bf60406119f6565b90506116cc816004612209565b82516116d9908290612215565b60208301516116e9908290612233565b60408301516116f9908290611a17565b6060830151611709908290611a17565b61050e81611a2e565b6040805180820190915260008082526020820152600061173a836001600160401b031661223f565b905060006117546005639904f2ff60518560006001612097565b905061118d81612277565b33600560ff60981b01146117855760405162461bcd60e51b81526004016104dc906149e8565b6000611790826122db565b905060006117a18260200151612337565b805151604051919250906002906117b99083906144fa565b9081526040519081900360200190206001015460ff166117eb5760405162461bcd60e51b81526004016104dc90614a2f565b6003816040516117fb91906144fa565b9081526040519081900360200190206001015460ff161561182e5760405162461bcd60e51b81526004016104dc90614a79565b600061185860028360405161184391906144fa565b90815260405190819003602001902054611380565b90508060400151151583604001511515146118b45760405162461bcd60e51b815260206004820152601c60248201527b0eccae4d2ccd2cac8bec8cac2d840e0c2e4c2da40dad2e6dac2e8c6d60231b60448201526064016104dc565b6000806118c58561010001516112ff565b9150915080156118e75760405162461bcd60e51b81526004016104dc90614ad4565b6000806118f88761014001516112ff565b91509150801561191a5760405162461bcd60e51b81526004016104dc90614ad4565b8460c001518411156119805760405162461bcd60e51b815260206004820152602960248201527f73746f726167652070726963652067726561746572207468616e2072657175656044820152681cdd08185b5bdd5b9d60ba1b60648201526084016104dc565b8461010001518211156119eb5760405162461bcd60e51b815260206004820152602d60248201527f636c69656e7420636f6c6c61746572616c2067726561746572207468616e207260448201526c195c5d595cdd08185b5bdd5b9d609a1b60648201526084016104dc565b505050505050505050565b6119fe613f2f565b8051611a0a9083612484565b5060006020820152919050565b6106448282611a275760146124ee565b60156124ee565b60608160200151600014611a735760405162461bcd60e51b815260206004820152600c60248201526b24b73b30b634b21021a127a960a11b60448201526064016104dc565b50515190565b33600560ff60981b0114611a9f5760405162461bcd60e51b81526004016104dc906149e8565b6000611aaa826124fd565b90506000611abb8260000151612337565b805151604051919250600291611ad191906144fa565b9081526040519081900360200190206001015460ff16611b035760405162461bcd60e51b81526004016104dc90614a2f565b805151604051600391611b15916144fa565b9081526040519081900360200190206001015460ff1615611b485760405162461bcd60e51b81526004016104dc90614a79565b60408051808201825260808301515181526001602082015282515191519091600391611b7491906144fa565b90815260405190819003602001902081518190611b919082614b3b565b50602091820151600191909101805460ff1916911515919091179055820151815151604051600491611bc2916144fa565b90815260405190819003602001812080546001600160401b03939093166001600160401b031990931692909217909155815151600291600591611c04916144fa565b908152604051908190036020019020805460ff19166001836004811115611c2d57611c2d6143c7565b0217905550505050565b33600760ff60981b0114611c9e5760405162461bcd60e51b815260206004820152602860248201527f6d73672e73656e646572206e6565647320746f2062652064617461636170206160448201526763746f722066303760c01b60648201526084016104dc565b7f10aa319ed8cad9bceb033c0c2788c4ae17469ac844e4c6e2c2e20e74ca8a7be8604051611cf190602080825260119082015270446174614361702052656365697665642160781b604082015260600190565b60405180910390a150565b6000611d0783612563565b90506000611d206005633105f1a6605185876000612097565b90508051600014611d4457604051630e74990760e01b815260040160405180910390fd5b50505050565b611d52613f04565b6000611d5d83612591565b905060405180602001604052808260000151604051602001611d7f9190614bf4565b60408051601f1981840301815291905290529392505050565b6060600080611dab8461010001516125da565b90506000611dbd8561012001516125da565b90506000611dcf8661014001516125da565b9050611ddb600b6126ee565b611de59085614c30565b865151909450611df49061273c565b611dfe9085614c30565b9350611e1686602001516001600160401b03166126ee565b611e209085614c30565b9350611e2a612754565b611e349085614c30565b9350611e47866060015160000151612765565b611e519085614c30565b9350611e64866080015160000151612765565b611e6e9085614c30565b9350611e818660a0015160000151612765565b611e8b9085614c30565b9350611e9a8660c00151612773565b611ea49085614c30565b9350611eb38660e00151612773565b611ebd9085614c30565b9350611ec883612765565b611ed29085614c30565b9350611edd82612765565b611ee79085614c30565b9350611ef281612765565b611efc9085614c30565b93506000611f09856119f6565b9050611f1681600b612209565b865151611f249082906127b6565b6020870151611f34908290612233565b6040870151611f44908290611a17565b606087015151611f559082906127f9565b608087015151611f669082906127f9565b60a0870151611f76908290612806565b60c0870151611f86908290612829565b60e0870151611f96908290612829565b611fa081856127f9565b611faa81846127f9565b611fb481836127f9565b611fbd81611a2e565b979650505050505050565b611fd0613f4f565b61050e83604051602001611fe691815260200190565b604051602081830303815290604052836000612833565b606060008061200f84602001516125da565b905061201b60026126ee565b6120259083614c30565b84515190925061203490612765565b61203e9083614c30565b915061204981612765565b6120539083614c30565b91506000612060836119f6565b905061206d816002612209565b84515161207b9082906127f9565b61208581836127f9565b61208e81611a2e565b95945050505050565b60606120aa6005607f60991b01846128ee565b6000806005607f60991b018886866120c35760006120c6565b60015b8a8a8e6040516020016120de96959493929190614c43565b60408051601f19818403018152908290526120f8916144fa565b600060405180830381855af49150503d8060008114612133576040519150601f19603f3d011682016040523d82523d6000602084013e612138565b606091505b50915091508161215b57604051638a7db5bf60e01b815260040160405180910390fd5b6121648161293c565b9998505050505050505050565b612179613f17565b6060600080845111156121a5576121908482612a1f565b81519193509150156121a55761118d82612bca565b505060408051600081830181815260608301909352918152602081019190915292915050565b6121d3613f4f565b61050e83836000612833565b6000806121ee84846001612d0f565b9050806001146121ff57600061118d565b6001949350505050565b61064482600483612e48565b6122228260038351612e4f565b815161222e9082612f68565b505050565b61064482600083612e4f565b60606000612255836001600160401b03166126ee565b90506000612262826119f6565b905061226e8185612233565b61118d81611a2e565b60408051808201909152600080825260208201526000806122988482612f7c565b92509050600281146122ac576122ac614c92565b6122b68483612ff8565b60079190910b845291506122ca8483612ff8565b5060070b6020840152509092915050565b60408051808201909152606080825260208201526000806122fc8482612f7c565b925090506002811461231057612310614c92565b61231a8483612a1f565b90845291506123298483612a1f565b506020840152509092915050565b61233f613e86565b600080606061234e8583612f7c565b93509150600b821461236257612362614c92565b61236c8584613012565b908552925061237b8584613256565b6001600160401b039091166020860152925061239785846132d5565b901515604086015292506123ab8584612a1f565b935090506123b881613370565b60608501526123c78584612a1f565b935090506123d481613370565b60808501526123e385846133ac565b60a086019190915292506123f78584612ff8565b60079190910b60c0860152925061240e8584612ff8565b60079190910b60e0860152925060606124278685612a1f565b9450905061243481612bca565b61010086015260606124468786612a1f565b9550905061245381612bca565b61012087015260606124658887612a1f565b9650905061247281612bca565b61014088015250949695505050505050565b61248c613f72565b612497602083614ca8565b156124bf576124a7602083614ca8565b6124b2906020614cca565b6124bc9083614c30565b91505b6020808401839052604051808552600081529081840101818110156124e357600080fd5b604052509192915050565b815161222e9060e08317613532565b60408051808201909152606081526000602082015260008061251f8482612f7c565b925090506002811461253357612533614c92565b61253d8483612a1f565b908452915061254c8483613256565b506001600160401b03166020840152509092915050565b606060006125748360000151612765565b90506000612581826119f6565b845190915061226e9082906127f9565b612599613f72565b6701ffffffffffffff600783901c1691607f1660008390036125c6576125bf8282613532565b5050919050565b6125d38260808317613532565b5050612599565b8051516060906000906125ee906001614c30565b6001600160401b0381111561260557612605613f8c565b6040519080825280601f01601f19166020018201604052801561262f576020820181803683370190505b50905082602001511515600115151461264957600061264f565b600160f81b5b816000815181106126625761266261455a565b60200101906001600160f81b031916908160001a905350600160005b8451518110156126e557845180518290811061269c5761269c61455a565b602001015160f81c60f81b8383815181106126b9576126b961455a565b60200101906001600160f81b031916908160001a905350816126da81614cdd565b92505060010161267e565b50909392505050565b60006017821161270057506001919050565b60ff821161271057506002919050565b61ffff821161272157506003919050565b63ffffffff821161273457506005919050565b506009919050565b6000815161274a60026126ee565b6104eb9190614c30565b600061276060016126ee565b905090565b6000815161274a83516126ee565b600081600781900b82136127935761050e816001600160401b03166126ee565b61050e6127a282600019614cf6565b6001600160401b03166126ee565b50919050565b81516127c39060d8613532565b5081516127d190602a613532565b50610644816040516020016127e69190614bf4565b60408051601f1981840301815291905283905b6122228260028351612e4f565b806020015161281c5780516106449083906127f9565b8051610644908390612215565b610644828261358e565b61283b613f4f565b60208401845160008051600060208406146001811461286c57601f8416602090810380860184528301019250612876565b6020820192508382525b508282848660046101c2fa5060208151018101604052805193505b602084146128bd57602081015115600181146128ad57506128bd565b50601f1990930192602001612891565b928352505081526020810183905281156128d757816128e2565b80516128e2906135bc565b60408201529392505050565b478181101561291a57604051634787a10360e11b815260048101829052602481018390526044016104dc565b823f151580611d445760405163064d954b60e41b815260040160405180910390fd5b60606000806000848060200190518101906129579190614d25565b919450925090506001600160401b0382166129915780511561298c57604051630e74990760e01b815260040160405180910390fd5b6129fd565b6001600160401b038216605114806129b257506001600160401b0382166071145b156129d957805160000361298c57604051630e74990760e01b815260040160405180910390fd5b60405163f1f6bced60e01b81526001600160401b03831660048201526024016104dc565b821561118d5760405163d4bb667160e01b8152600481018490526024016104dc565b60606000806000612a3086866135f4565b96509092506001600160401b0316905060ff821660061480612a55575060ff82166002145b612ab85760405162461bcd60e51b815260206004820152602e60248201527f696e76616c6964206d616a20286578706563746564204d616a546167206f722060448201526d4d616a42797465537472696e672960901b60648201526084016104dc565b60051960ff831601612af157612ace86866135f4565b96509092506001600160401b0316905060ff8216600214612af157612af1614c92565b6000612afd8287614c30565b90506000826001600160401b03811115612b1957612b19613f8c565b6040519080825280601f01601f191660200182016040528015612b43576020820181803683370190505b5090506000875b83811015612bad57898181518110612b6457612b6461455a565b602001015160f81c60f81b838381518110612b8157612b8161455a565b60200101906001600160f81b031916908160001a90535081612ba281614cdd565b925050600101612b4a565b5081612bb9858a614c30565b9650965050505050505b9250929050565b612bd2613f17565b8151600003612c06575050604080516080810182526001918101918252600060608201819052918152602081019190915290565b600060018351612c169190614cca565b6001600160401b03811115612c2d57612c2d613f8c565b6040519080825280601f01601f191660200182016040528015612c57576020820181803683370190505b509050600083600081518110612c6f57612c6f61455a565b01602001516001600160f81b031916600160f81b03612c8c575060015b60015b8451811015612cf457848181518110612caa57612caa61455a565b01602001516001600160f81b03191683612cc5600184614cca565b81518110612cd557612cd561455a565b60200101906001600160f81b031916908160001a905350600101612c8f565b50604080518082019091529182521515602082015292915050565b600060018215612d885784602001518015612d2b575083602001515b15612d395750600019612d88565b6020850151158015612d515750602084015115156001145b15612d6057600191505061050e565b602085015115156001148015612d7857506020840151155b15612d885760001991505061050e565b836040015185604001511115612d9f57905061050e565b846040015184604001511115612dc357612dbb81600019614dba565b91505061050e565b84518051855160209283019201906000908190815b81811015612e375780860151935080850151925082841115612e03578697505050505050505061050e565b83831115612e2557612e1787600019614dba565b97505050505050505061050e565b612e30602082614c30565b9050612dd8565b5060009a9950505050505050505050565b61222e8383835b6017816001600160401b031611612e75578251611d449060e0600585901b168317613532565b60ff816001600160401b031611612eb5578251612e9d906018611fe0600586901b1617613532565b508251611d44906001600160401b03831660016137ce565b61ffff816001600160401b031611612ef6578251612ede906019611fe0600586901b1617613532565b508251611d44906001600160401b03831660026137ce565b63ffffffff816001600160401b031611612f39578251612f2190601a611fe0600586901b1617613532565b508251611d44906001600160401b03831660046137ce565b8251612f5090601b611fe0600586901b1617613532565b508251611d44906001600160401b03831660086137ce565b612f70613f72565b61050e83838451613846565b600080600080612f8c86866135f4565b96509092506001600160401b0316905060ff8216600414612fef5760405162461bcd60e51b815260206004820152601f60248201527f696e76616c6964206d616a20286578706563746564204d616a4172726179290060448201526064016104dc565b95939450505050565b60008080613006858561390a565b90969095509350505050565b61301a613f04565b6000808061302886866135f4565b96509092506001600160401b0316905060ff821660061461309c5760405162461bcd60e51b815260206004820152602860248201527f6578706563746564206d616a6f72207479706520746167207768656e207061726044820152671cda5b99c818da5960c21b60648201526084016104dc565b602a81146130ec5760405162461bcd60e51b815260206004820181905260248201527f657870656374656420746167203432207768656e2070617273696e672063696460448201526064016104dc565b60606130f88787612a1f565b8097508192505050806000815181106131135761311361455a565b01602001516001600160f81b031916156131845760405162461bcd60e51b815260206004820152602c60248201527f6578706563746564206669727374206279746520746f2062652030207768656e60448201526b081c185c9cda5b99c818da5960a21b60648201526084016104dc565b61318c613f04565b6001825161319a9190614cca565b6001600160401b038111156131b1576131b1613f8c565b6040519080825280601f01601f1916602001820160405280156131db576020820181803683370190505b50815260015b825181101561324a578281815181106131fc576131fc61455a565b016020015182516001600160f81b03199091169061321b600184614cca565b8151811061322b5761322b61455a565b60200101906001600160f81b031916908160001a9053506001016131e1565b50979596505050505050565b60008060008061326686866135f4565b96509092506001600160401b0316905060ff821615612fef5760405162461bcd60e51b815260206004820152602560248201527f696e76616c6964206d616a20286578706563746564204d616a556e7369676e6560448201526464496e742960d81b60648201526084016104dc565b6000806000806132e586866135f4565b96509092506001600160401b0316905060ff82166007146133485760405162461bcd60e51b815260206004820152601f60248201527f696e76616c6964206d616a20286578706563746564204d616a4f74686572290060448201526064016104dc565b60158114806133575750601481145b61336357613363614c92565b6014141595939450505050565b613378613f04565b604080516020810190915282815261338f816139a7565b6104eb5760405163e6c4247b60e01b815260040160405180910390fd5b6133b4613f17565b60008060006133c386866135f4565b96509092506001600160401b0316905060ff8216600214806133e8575060ff82166003145b6134525760405162461bcd60e51b815260206004820152603560248201527f696e76616c6964206d616a20286578706563746564204d616a42797465537472604482015274696e67206f72204d616a54657874537472696e672960581b60648201526084016104dc565b600061345e8287614c30565b90506000826001600160401b0381111561347a5761347a613f8c565b6040519080825280601f01601f1916602001820160405280156134a4576020820181803683370190505b5090506000875b8381101561350e578981815181106134c5576134c561455a565b602001015160f81c60f81b8383815181106134e2576134e261455a565b60200101906001600160f81b031916908160001a9053508161350381614cdd565b9250506001016134ab565b506040805180820190915282815260ff86166003146020820152612bb9858a614c30565b61353a613f72565b825151600061354a826001614c30565b90508460200151821061356b5761356b85613566836002614dea565b613abd565b8451602083820101858153508051821115613584578181525b5093949350505050565b60008160070b126135a55761064482600083612e4f565b6106448260016135b784600019614cf6565b612e4f565b60006135c782613ad4565b156135d457506000919050565b60208201516135e281613b1d565b9251601f190160080290920192915050565b6000806000806136048686613d10565b9050613611600186614c30565b94506007600582901c16601f8216601c811061367d5760405162461bcd60e51b815260206004820152602560248201527f63616e6e6f742068616e646c6520686561646572732077697468206578747261604482015264203e20323760d81b60648201526084016104dc565b60188160ff16101561369b5790945060ff1692508491506137c79050565b8060ff166018036137175760006136b28989613d10565b90506136bf600189614c30565b975060188160ff1610156137045760405162461bcd60e51b815260206004820152600c60248201526b34b73b30b634b21031b137b960a11b60448201526064016104dc565b9195505060ff1692508491506137c79050565b8060ff1660190361375157600061372e8989613d5f565b905061373b600289614c30565b97509195505061ffff1692508491506137c79050565b8060ff16601a0361378d5760006137688989613d98565b9050613775600489614c30565b97509195505063ffffffff1692508491506137c79050565b8060ff16601b146137a0576137a0614c92565b60006137ac8989613dd1565b90506137b9600889614c30565b975091955090935085925050505b9250925092565b6137d6613f72565b83515160006137e58285614c30565b905085602001518111156138025761380286613566836002614dea565b6000600161381286610100614ee5565b61381c9190614cca565b9050865182810187831982511617815250805183111561383a578281525b50959695505050505050565b61384e613f72565b825182111561385c57600080fd5b835151600061386b8483614c30565b905085602001518111156138885761388886613566836002614dea565b8551805183820160200191600091808511156138a2578482525b505050602086015b602086106138e257805182526138c1602083614c30565b91506138ce602082614c30565b90506138db602087614cca565b95506138aa565b51815160001960208890036101000a0190811690199190911617905250849150509392505050565b60008060008061391a86866135f4565b96509092506001600160401b0316905060ff82166001148061393d575060ff8216155b612fef5760405162461bcd60e51b815260206004820152603560248201527f696e76616c6964206d616a20286578706563746564204d616a5369676e6564496044820152746e74206f72204d616a556e7369676e6564496e742960581b60648201526084016104dc565b600081600001516000815181106139c0576139c061455a565b01602001516001600160f81b0319166000036139e057505151600a101590565b815180516000906139f3576139f361455a565b6020910101516001600160f81b031916600160f81b1480613a39575081518051600090613a2257613a2261455a565b6020910101516001600160f81b031916600160f91b145b15613a475750515160151490565b81518051600090613a5a57613a5a61455a565b01602001516001600160f81b031916600360f81b03613a7c5750515160311490565b81518051600090613a8f57613a8f61455a565b01602001516001600160f81b031916600160fa1b03613ab2575051516040101590565b505151610100101590565b8151613ac98383612484565b50611d448382612f68565b60008060208301815b8451811015613b1257815192508215613afb57506000949350505050565b602091820191613b0b9082614c30565b9050613add565b506001949350505050565b6000811560018114613d0757604080517ff8f9cbfae6cc78fbefe7cdc3a1793dfcf4f0e8bbd8cec470b6a28a7a5a3e1efd81527ff5ecf1b3e9debc68e1d9cfabc5997135bfb7a7a3938b7b606b5b4b3f2f1f0ffe60208201527ff6e4ed9ff2d6b458eadcdf97bd91692de2d4da8fd2d0ac50c6ae9a8272523616818301527fc8c0b887b0a8a4489c948c7f847c6125746c645c544c444038302820181008ff60608201527ff7cae577eec2a03cf3bad76fb589591debb2dd67e0aa9834bea6925f6a4a2e0e60808201527fe39ed557db96902cd38ed14fad815115c786af479b7e8324736353433727170760a08201527fc976c13bb96e881cb166a933a55e490d9d56952b8d4e801485467d236242260660c08201527f753a6d1b65325d0c552a4d1345224105391a310b29122104190a11030902010060e0820152610100818101909252600160f81b7e818283848586878898a8b8c8d8e8f929395969799a9b9d9e9faaeb6bedeeff600160801b600160401b600160201b620100006010600460026000198e0190810481179182049091179182049091178981041791820490911791820490911791820490911791820490911760010191820283900460ff03909301519096600160ff1b81119094029190040193508116613d01576001830192505b506127b0565b50600092915050565b6000613d1d826001614c30565b83511015613d3d5760405162461bcd60e51b81526004016104dc90614ef1565b828281518110613d4f57613d4f61455a565b016020015160f81c905092915050565b6000613d6c826002614c30565b83511015613d8c5760405162461bcd60e51b81526004016104dc90614ef1565b50016020015160f01c90565b6000613da5826004614c30565b83511015613dc55760405162461bcd60e51b81526004016104dc90614ef1565b50016020015160e01c90565b6000613dde826008614c30565b83511015613dfe5760405162461bcd60e51b81526004016104dc90614ef1565b50016020015160c01c90565b6040805161016081018252606080825260006020808401829052838501829052828401839052608080850183905260a0850183905260c0850183905260e085018390526101008501839052610120850183905285519081018652838152908101829052938401819052908301529061014082015290565b905290565b604051806101600160405280613e9a613f04565b81526000602082018190526040820152606001613eb5613f04565b8152602001613ec2613f04565b8152602001613ecf613f17565b81526000602082018190526040820152606001613eea613f17565b8152602001613ef7613f17565b8152602001613e81613f17565b6040518060200160405280606081525090565b60408051808201909152606081526000602082015290565b6040518060400160405280613f42613f72565b8152602001600081525090565b604051806060016040528060608152602001600015158152602001600081525090565b604051806040016040528060608152602001600081525090565b634e487b7160e01b600052604160045260246000fd5b604051601f8201601f191681016001600160401b0381118282101715613fca57613fca613f8c565b604052919050565b60006001600160401b03821115613feb57613feb613f8c565b50601f01601f191660200190565b600082601f83011261400a57600080fd5b813561401d61401882613fd2565b613fa2565b81815284602083860101111561403257600080fd5b816020850160208301376000918101602001919091529392505050565b60006020828403121561406157600080fd5b81356001600160401b0381111561407757600080fd5b61118d84828501613ff9565b6000806040838503121561409657600080fd5b82356001600160a01b03811681146140ad57600080fd5b946020939093013593505050565b6000602082840312156140cd57600080fd5b5035919050565b60005b838110156140ef5781810151838201526020016140d7565b50506000910152565b600081518084526141108160208601602086016140d4565b601f01601f19169290920160200192915050565b60208152600061050e60208301846140f8565b6000806020838503121561414a57600080fd5b82356001600160401b038082111561416157600080fd5b818501915085601f83011261417557600080fd5b81358181111561418457600080fd5b86602082850101111561419657600080fd5b60209290920196919550909350505050565b6020815260008251604060208401526141c460608401826140f8565b90506020840151151560408401528091505092915050565b6001600160401b0381168114610d9657600080fd5b60008060006060848603121561420657600080fd5b8335614211816141dc565b92506020840135614221816141dc565b915060408401356001600160401b0381111561423c57600080fd5b61424886828701613ff9565b9150509250925092565b63ffffffff841681526001600160401b038316602082015260606040820152600061208e60608301846140f8565b600081516080845261429560808501826140f8565b90506001600160401b0360208401511660208501526040830151151560408501526060830151151560608501528091505092915050565b60208152600082516101608060208501526142eb6101808501836140f8565b9150602085015161430760408601826001600160401b03169052565b5060408501518015156060860152506060850151601f198086850301608087015261433284836140f8565b93506080870151915061434a60a087018360070b9052565b60a0870151915061436060c087018360070b9052565b60c087015160e087810191909152870151610100808801919091528701516101208088019190915287015191506101406143a4818801846001600160401b03169052565b8701518685039091018387015290506143bd8382614280565b9695505050505050565b634e487b7160e01b600052602160045260246000fd5b60208101600583106143ff57634e487b7160e01b600052602160045260246000fd5b91905290565b60006101608083526144198184018f6140f8565b90506001600160401b03808e1660208501528c151560408501528382036060850152614445828d6140f8565b91508a60070b60808501528960070b60a08501528860c08501528760e085015286610100850152808616610120850152508281036101408401526144898185614280565b9e9d5050505050505050505050505050565b6000602082840312156144ad57600080fd5b81356001600160401b038111156144c357600080fd5b8201610160818503121561050e57600080fd5b6040815260006144e960408301856140f8565b905082151560208301529392505050565b6000825161450c8184602087016140d4565b9190910192915050565b8183823760009101908152919050565b600181811c9082168061453a57607f821691505b6020821081036127b057634e487b7160e01b600052602260045260246000fd5b634e487b7160e01b600052603260045260246000fd5b6000808335601e1984360301811261458757600080fd5b8301803591506001600160401b038211156145a157600080fd5b602001915036819003821315612bc357600080fd5b601f82111561222e576000816000526020600020601f850160051c810160208610156145df5750805b601f850160051c820191505b818110156145fe578281556001016145eb565b505050505050565b600019600383901b1c191660019190911b1790565b6001600160401b0383111561463257614632613f8c565b614646836146408354614526565b836145b6565b6000601f84116001811461467457600085156146625750838201355b61466c8682614606565b8455506146ce565b600083815260209020601f19861690835b828110156146a55786850135825560209485019460019092019101614685565b50868210156146c25760001960f88860031b161c19848701351681555b505060018560011b0183555b5050505050565b600081356104eb816141dc565b6001600160401b0382166001600160401b03198254161781555050565b8015158114610d9657600080fd5b600081356104eb816146ff565b600081358060070b81146104eb57600080fd5b60008235607e1983360301811261450c57600080fd5b61474d8283614570565b6001600160401b0381111561476457614764613f8c565b614778816147728554614526565b856145b6565b6000601f8211600181146147a657600083156147945750838201355b61479e8482614606565b865550614800565b600085815260209020601f19841690835b828110156147d757868501358255602094850194600190920191016147b7565b50848210156147f45760001960f88660031b161c19848701351681555b505060018360011b0185555b505050506001810161481d614817602085016146d5565b826146e2565b61484a61482c6040850161470d565b82805460ff60401b191691151560401b60ff60401b16919091179055565b61222e6148596060850161470d565b82805460ff60481b191691151560481b60ff60481b16919091179055565b6148818283614570565b61488c81838561461b565b5050600181016148a1614817602085016146d5565b6148b061482c6040850161470d565b506148be6060830183614570565b6148cc81836002860161461b565b5050600381016148fe6148e16080850161471a565b82546001600160401b0319166001600160401b0391909116178255565b61493761490d60a0850161471a565b825460409190911b67ffffffffffffffff60401b1667ffffffffffffffff60401b19909116178255565b5060c0820135600482015560e08201356005820155610100820135600682015561497061496761012084016146d5565b600783016146e2565b61064461498161014084018461472d565b60088301614743565b60006020828403121561499c57600080fd5b813561050e816146ff565b6000602082840312156149b957600080fd5b813561050e816141dc565b805160208083015191908110156127b05760001960209190910360031b1b16919050565b60208082526027908201527f6d73672e73656e646572206e6565647320746f206265206d61726b6574206163604082015266746f722066303560c81b606082015260800190565b6020808252602a908201527f706965636520636964206d757374206265206164646564206265666f726520616040820152697574686f72697a696e6760b01b606082015260800190565b6020808252603b908201527f6465616c206661696c656420706f6c69637920636865636b3a2070726f76696460408201527a195c88185b1c9958591e4818db185a5b5959081d1a1a5cc818da59602a1b606082015260800190565b60208082526041908201527f49737375657320636f6e76657274696e672075696e7432353620746f2042696760408201527f496e742c206d6179206e6f7420686176652061636375726174652076616c75656060820152607360f81b608082015260a00190565b81516001600160401b03811115614b5457614b54613f8c565b614b6881614b628454614526565b846145b6565b602080601f831160018114614b975760008415614b855750858301515b614b8f8582614606565b8655506145fe565b600085815260208120601f198616915b82811015614bc657888601518255948401946001909101908401614ba7565b5085821015614be45787850151600019600388901b60f8161c191681555b5050505050600190811b01905550565b6000815260008251614c0d8160018501602087016140d4565b9190910160010192915050565b634e487b7160e01b600052601160045260246000fd5b808201808211156104eb576104eb614c1a565b60006001600160401b0380891683528760208401528087166040840152808616606084015260c06080840152614c7c60c08401866140f8565b915080841660a084015250979650505050505050565b634e487b7160e01b600052600160045260246000fd5b600082614cc557634e487b7160e01b600052601260045260246000fd5b500690565b818103818111156104eb576104eb614c1a565b600060018201614cef57614cef614c1a565b5060010190565b600782810b9082900b03677fffffffffffffff198112677fffffffffffffff821317156104eb576104eb614c1a565b600080600060608486031215614d3a57600080fd5b835192506020840151614d4c816141dc565b60408501519092506001600160401b03811115614d6857600080fd5b8401601f81018613614d7957600080fd5b8051614d8761401882613fd2565b818152876020838501011115614d9c57600080fd5b614dad8260208301602086016140d4565b8093505050509250925092565b80820260008212600160ff1b84141615614dd657614dd6614c1a565b81810583148215176104eb576104eb614c1a565b80820281158282048414176104eb576104eb614c1a565b600181815b80851115614e3c578160001904821115614e2257614e22614c1a565b80851615614e2f57918102915b93841c9390800290614e06565b509250929050565b600082614e53575060016104eb565b81614e60575060006104eb565b8160018114614e765760028114614e8057614e9c565b60019150506104eb565b60ff841115614e9157614e91614c1a565b50506001821b6104eb565b5060208310610133831016604e8410600b8410161715614ebf575081810a6104eb565b614ec98383614e01565b8060001904821115614edd57614edd614c1a565b029392505050565b600061050e8383614e44565b602080825260149082015273736c6963696e67206f7574206f662072616e676560601b60408201526060019056fea2646970667358221220450b5f58f6c1afd6b5aecb6b80b8b9ba9120a7bf30a686512cc9a48e0a78c4f564736f6c63430008170033",
  "linkReferences": {},
  "deployedLinkReferences": {}
}